{"contracts/P2PEscrow.sol":{"P2PEscrow":{"abi":[{"inputs":[{"internalType":"address","name":"_cesToken","type":"address"}],"stateMutability":"nonpayable","type":"constructor"},{"inputs":[],"name":"EscrowExpired","type":"error"},{"inputs":[],"name":"EscrowNotExpired","type":"error"},{"inputs":[],"name":"EscrowNotFound","type":"error"},{"inputs":[],"name":"InsufficientBalance","type":"error"},{"inputs":[],"name":"InvalidAddress","type":"error"},{"inputs":[],"name":"InvalidAmount","type":"error"},{"inputs":[],"name":"InvalidEscrowStatus","type":"error"},{"inputs":[],"name":"InvalidTimelock","type":"error"},{"inputs":[],"name":"TransferFailed","type":"error"},{"inputs":[],"name":"UnauthorizedAccess","type":"error"},{"anonymous":false,"inputs":[{"indexed":true,"internalType":"uint256","name":"escrowId","type":"uint256"}],"name":"DisputeInitiated","type":"event"},{"anonymous":false,"inputs":[{"indexed":true,"internalType":"uint256","name":"escrowId","type":"uint256"},{"indexed":false,"internalType":"bool","name":"favorBuyer","type":"bool"}],"name":"DisputeResolved","type":"event"},{"anonymous":false,"inputs":[{"indexed":true,"internalType":"uint256","name":"escrowId","type":"uint256"},{"indexed":true,"internalType":"address","name":"seller","type":"address"},{"indexed":true,"internalType":"address","name":"buyer","type":"address"},{"indexed":false,"internalType":"uint256","name":"amount","type":"uint256"}],"name":"EscrowCreated","type":"event"},{"anonymous":false,"inputs":[{"indexed":true,"internalType":"uint256","name":"escrowId","type":"uint256"}],"name":"EscrowRefunded","type":"event"},{"anonymous":false,"inputs":[{"indexed":true,"internalType":"uint256","name":"escrowId","type":"uint256"}],"name":"EscrowReleased","type":"event"},{"anonymous":false,"inputs":[{"indexed":true,"internalType":"address","name":"previousOwner","type":"address"},{"indexed":true,"internalType":"address","name":"newOwner","type":"address"}],"name":"OwnershipTransferred","type":"event"},{"anonymous":false,"inputs":[{"indexed":false,"internalType":"address","name":"account","type":"address"}],"name":"Paused","type":"event"},{"anonymous":false,"inputs":[{"indexed":true,"internalType":"uint256","name":"escrowId","type":"uint256"},{"indexed":false,"internalType":"uint256","name":"newTimelock","type":"uint256"}],"name":"TimelockExtended","type":"event"},{"anonymous":false,"inputs":[{"indexed":false,"internalType":"address","name":"account","type":"address"}],"name":"Unpaused","type":"event"},{"inputs":[],"name":"MAX_TIMELOCK","outputs":[{"internalType":"uint256","name":"","type":"uint256"}],"stateMutability":"view","type":"function"},{"inputs":[],"name":"MIN_TIMELOCK","outputs":[{"internalType":"uint256","name":"","type":"uint256"}],"stateMutability":"view","type":"function"},{"inputs":[],"name":"cesToken","outputs":[{"internalType":"contract IERC20","name":"","type":"address"}],"stateMutability":"view","type":"function"},{"inputs":[{"internalType":"address","name":"seller","type":"address"},{"internalType":"address","name":"buyer","type":"address"},{"internalType":"uint256","name":"amount","type":"uint256"},{"internalType":"uint256","name":"timelock","type":"uint256"}],"name":"createEscrow","outputs":[{"internalType":"uint256","name":"escrowId","type":"uint256"}],"stateMutability":"nonpayable","type":"function"},{"inputs":[{"internalType":"address","name":"token","type":"address"},{"internalType":"uint256","name":"amount","type":"uint256"}],"name":"emergencyTokenRecovery","outputs":[],"stateMutability":"nonpayable","type":"function"},{"inputs":[{"internalType":"uint256","name":"","type":"uint256"}],"name":"escrows","outputs":[{"internalType":"address","name":"seller","type":"address"},{"internalType":"address","name":"buyer","type":"address"},{"internalType":"uint256","name":"amount","type":"uint256"},{"internalType":"uint256","name":"timelock","type":"uint256"},{"internalType":"enum P2PEscrow.EscrowStatus","name":"status","type":"uint8"},{"internalType":"bool","name":"disputeInitiated","type":"bool"},{"internalType":"uint256","name":"createdAt","type":"uint256"}],"stateMutability":"view","type":"function"},{"inputs":[{"internalType":"uint256","name":"escrowId","type":"uint256"},{"internalType":"uint256","name":"additionalTime","type":"uint256"}],"name":"extendTimelock","outputs":[],"stateMutability":"nonpayable","type":"function"},{"inputs":[{"internalType":"uint256","name":"escrowId","type":"uint256"}],"name":"getEscrowDetails","outputs":[{"internalType":"address","name":"seller","type":"address"},{"internalType":"address","name":"buyer","type":"address"},{"internalType":"uint256","name":"amount","type":"uint256"},{"internalType":"uint256","name":"timelock","type":"uint256"},{"internalType":"enum P2PEscrow.EscrowStatus","name":"status","type":"uint8"}],"stateMutability":"view","type":"function"},{"inputs":[{"internalType":"uint256","name":"escrowId","type":"uint256"}],"name":"initiateDispute","outputs":[],"stateMutability":"nonpayable","type":"function"},{"inputs":[{"internalType":"uint256","name":"escrowId","type":"uint256"}],"name":"isEscrowExpired","outputs":[{"internalType":"bool","name":"","type":"bool"}],"stateMutability":"view","type":"function"},{"inputs":[],"name":"nextEscrowId","outputs":[{"internalType":"uint256","name":"","type":"uint256"}],"stateMutability":"view","type":"function"},{"inputs":[],"name":"owner","outputs":[{"internalType":"address","name":"","type":"address"}],"stateMutability":"view","type":"function"},{"inputs":[],"name":"pause","outputs":[],"stateMutability":"nonpayable","type":"function"},{"inputs":[],"name":"paused","outputs":[{"internalType":"bool","name":"","type":"bool"}],"stateMutability":"view","type":"function"},{"inputs":[{"internalType":"uint256","name":"escrowId","type":"uint256"}],"name":"refundEscrow","outputs":[],"stateMutability":"nonpayable","type":"function"},{"inputs":[{"internalType":"uint256","name":"escrowId","type":"uint256"}],"name":"releaseEscrow","outputs":[],"stateMutability":"nonpayable","type":"function"},{"inputs":[],"name":"renounceOwnership","outputs":[],"stateMutability":"nonpayable","type":"function"},{"inputs":[{"internalType":"uint256","name":"escrowId","type":"uint256"},{"internalType":"bool","name":"favorBuyer","type":"bool"}],"name":"resolveDispute","outputs":[],"stateMutability":"nonpayable","type":"function"},{"inputs":[{"internalType":"address","name":"newOwner","type":"address"}],"name":"transferOwnership","outputs":[],"stateMutability":"nonpayable","type":"function"},{"inputs":[],"name":"unpause","outputs":[],"stateMutability":"nonpayable","type":"function"}],"evm":{"bytecode":{"linkReferences":{},"object":"60a0604052600160035534801561001557600080fd5b506040516117a63803806117a6833981016040819052610034916100d9565b600160005561004233610087565b6001805460ff60a01b191690556001600160a01b0381166100765760405163e6c4247b60e01b815260040160405180910390fd5b6001600160a01b0316608052610109565b600180546001600160a01b038381166001600160a01b0319831681179093556040519116919082907f8be0079c531659141344cd1fd0a4f28419497f9722a3daafe3b4186f6b6457e090600090a35050565b6000602082840312156100eb57600080fd5b81516001600160a01b038116811461010257600080fd5b9392505050565b608051611651610155600039600081816102c501528181610411015281816104df0152818161070501528181610b1401528181610bc701528181610c7f015261104801526116516000f3fe608060405234801561001057600080fd5b506004361061012c5760003560e01c806394f1825b116100ad578063d9b7ed9111610071578063d9b7ed91146102c0578063ddd84ee7146102e7578063ed653164146102fa578063f2fde38b1461030d578063fb0c75491461032057600080fd5b806394f1825b146102595780639bb4ea1a14610263578063b49b0cb314610276578063b996ec2a14610289578063ccbae5f6146102ad57600080fd5b8063715018a6116100f4578063715018a6146101fa57806371635c03146102025780638456cb591461021557806389cb29dd1461021d5780638da5cb5b1461023457600080fd5b8063012f52ee1461013157806334b25ee2146101ac578063356f9dfd146101c15780633f4ba83a146101d45780635c975abb146101dc575b600080fd5b61019061013f3660046113bd565b60026020819052600091825260409091208054600182015492820154600383015460048401546005909401546001600160a01b0393841695909316939192909160ff80821692610100909204169087565b6040516101a3979695949392919061140e565b60405180910390f35b6101bf6101ba366004611464565b610329565b005b6101bf6101cf3660046113bd565b6105aa565b6101bf6107cb565b600154600160a01b900460ff165b60405190151581526020016101a3565b6101bf6107dd565b6101bf6102103660046113bd565b6107ef565b6101bf6108e3565b61022660035481565b6040519081526020016101a3565b6001546001600160a01b03165b6040516001600160a01b0390911681526020016101a3565b61022662093a8081565b6101ea6102713660046113bd565b6108f3565b6101bf6102843660046114b0565b610936565b61029c6102973660046113bd565b6109dd565b6040516101a39594939291906114da565b6102266102bb366004611517565b610a55565b6102417f000000000000000000000000000000000000000000000000000000000000000081565b6101bf6102f5366004611559565b610e86565b6101bf6103083660046113bd565b610f4d565b6101bf61031b36600461157b565b611108565b61022661070881565b610331611183565b600082815260026020526040902080546001600160a01b03166103675760405163f1d80ab160e01b815260040160405180910390fd5b6000600482015460ff166003811115610382576103826113d6565b146103a05760405163268afcc560e21b815260040160405180910390fd5b6004810154610100900460ff166103ca5760405163268afcc560e21b815260040160405180910390fd5b81156104a0576004818101805460ff19166001908117909155820154600283015460405163a9059cbb60e01b81526001600160a01b039283169381019390935260248301527f0000000000000000000000000000000000000000000000000000000000000000169063a9059cbb906044016020604051808303816000875af115801561045a573d6000803e3d6000fd5b505050506040513d601f19601f8201168201806040525081019061047e919061159d565b61049b576040516312171d8360e31b815260040160405180910390fd5b610569565b6004818101805460ff1916600290811790915582549083015460405163a9059cbb60e01b81526001600160a01b039283169381019390935260248301527f0000000000000000000000000000000000000000000000000000000000000000169063a9059cbb906044016020604051808303816000875af1158015610528573d6000803e3d6000fd5b505050506040513d601f19601f8201168201806040525081019061054c919061159d565b610569576040516312171d8360e31b815260040160405180910390fd5b827f5a87909bff68caaaaf0b3fd9c74eeccc928832f879315e5c6fb7a73612f26c0c8360405161059d911515815260200190565b60405180910390a2505050565b6105b26111dd565b600081815260026020526040902080546001600160a01b03166105e85760405163f1d80ab160e01b815260040160405180910390fd5b6000600482015460ff166003811115610603576106036113d6565b146106215760405163268afcc560e21b815260040160405180910390fd5b60006106356001546001600160a01b031690565b60038301548354336001600160a01b03938416811494504292909210159260009291161480610670575060018401546001600160a01b031633145b90508215801561067e575081155b1561069c57604051635b3d0edd60e01b815260040160405180910390fd5b821580156106a8575080155b156106c657604051631a27eac360e11b815260040160405180910390fd5b6004848101805460ff1916600290811790915585549086015460405163a9059cbb60e01b81526001600160a01b039283169381019390935260248301527f0000000000000000000000000000000000000000000000000000000000000000169063a9059cbb906044016020604051808303816000875af115801561074e573d6000803e3d6000fd5b505050506040513d601f19601f82011682018060405250810190610772919061159d565b61078f576040516312171d8360e31b815260040160405180910390fd5b60405185907f2babb5cd458b6d41108d6d793a75e29ca524e7caa20e2da6c994462010920a7290600090a2505050506107c86001600055565b50565b6107d3611183565b6107db611236565b565b6107e5611183565b6107db600061128b565b600081815260026020526040902080546001600160a01b03166108255760405163f1d80ab160e01b815260040160405180910390fd5b6000600482015460ff166003811115610840576108406113d6565b1461085e5760405163268afcc560e21b815260040160405180910390fd5b80546001600160a01b03163314801590610885575060018101546001600160a01b03163314155b156108a357604051631a27eac360e11b815260040160405180910390fd5b60048101805461ff00191661010017905560405182907f116f6b179359db1a58a963fc783ee184e7844aba306a3c2ce02de3d7391d17c390600090a25050565b6108eb611183565b6107db6112dd565b600081815260026020526040812080546001600160a01b03166109295760405163f1d80ab160e01b815260040160405180910390fd5b6003015442101592915050565b61093e611183565b610946611320565b816001600160a01b031663a9059cbb6109676001546001600160a01b031690565b6040516001600160e01b031960e084901b1681526001600160a01b039091166004820152602481018490526044016020604051808303816000875af11580156109b4573d6000803e3d6000fd5b505050506040513d601f19601f820116820180604052508101906109d8919061159d565b505050565b6000818152600260205260408120805482918291829182916001600160a01b0316610a1b5760405163f1d80ab160e01b815260040160405180910390fd5b80546001820154600283015460038401546004909401546001600160a01b039384169b939092169950975091955060ff9091169350915050565b6000610a5f6111dd565b610a67611370565b6001600160a01b0385161580610a8457506001600160a01b038416155b15610aa25760405163e6c4247b60e01b815260040160405180910390fd5b82600003610ac35760405163162908e360e11b815260040160405180910390fd5b610708821080610ad5575062093a8082115b15610af357604051637c68874160e11b815260040160405180910390fd5b6040516370a0823160e01b81526001600160a01b03868116600483015284917f0000000000000000000000000000000000000000000000000000000000000000909116906370a0823190602401602060405180830381865afa158015610b5d573d6000803e3d6000fd5b505050506040513d601f19601f82011682018060405250810190610b8191906115ba565b1015610ba057604051631e9acf1760e31b815260040160405180910390fd5b604051636eb1769f60e11b81526001600160a01b03868116600483015230602483015284917f00000000000000000000000000000000000000000000000000000000000000009091169063dd62ed3e90604401602060405180830381865afa158015610c10573d6000803e3d6000fd5b505050506040513d601f19601f82011682018060405250810190610c3491906115ba565b1015610c5357604051631e9acf1760e31b815260040160405180910390fd5b6040516323b872dd60e01b81526001600160a01b038681166004830152306024830152604482018590527f000000000000000000000000000000000000000000000000000000000000000016906323b872dd906064016020604051808303816000875af1158015610cc8573d6000803e3d6000fd5b505050506040513d601f19601f82011682018060405250810190610cec919061159d565b610d09576040516312171d8360e31b815260040160405180910390fd5b60038054906000610d19836115e9565b9190505590506040518060e00160405280866001600160a01b03168152602001856001600160a01b031681526020018481526020018342610d5a9190611602565b8152602001600081526000602080830182905242604093840152848252600280825291839020845181546001600160a01b039182166001600160a01b0319918216178355928601516001838101805492909316919094161790559284015191830191909155606083015160038084019190915560808401516004840180549193909260ff19909216918490811115610df457610df46113d6565b021790555060a08201518160040160016101000a81548160ff02191690831515021790555060c08201518160050155905050836001600160a01b0316856001600160a01b0316827f9405ad0a6208539879349284d71265479b1623846f70303da1f9890d6e8c10a786604051610e6c91815260200190565b60405180910390a4610e7e6001600055565b949350505050565b610e8e611183565b600082815260026020526040902080546001600160a01b0316610ec45760405163f1d80ab160e01b815260040160405180910390fd5b6000600482015460ff166003811115610edf57610edf6113d6565b14610efd5760405163268afcc560e21b815260040160405180910390fd5b81816003016000828254610f119190611602565b9091555050600381015460405190815283907fa89016e73367255237a01020e483c84e13a32b02f995b36746c7a55f0d50c7d79060200161059d565b610f556111dd565b600081815260026020526040902080546001600160a01b0316610f8b5760405163f1d80ab160e01b815260040160405180910390fd5b6000600482015460ff166003811115610fa657610fa66113d6565b14610fc45760405163268afcc560e21b815260040160405180910390fd5b80546001600160a01b03163314801590610fe957506001546001600160a01b03163314155b1561100757604051631a27eac360e11b815260040160405180910390fd5b6004818101805460ff19166001908117909155820154600283015460405163a9059cbb60e01b81526001600160a01b039283169381019390935260248301527f0000000000000000000000000000000000000000000000000000000000000000169063a9059cbb906044016020604051808303816000875af1158015611091573d6000803e3d6000fd5b505050506040513d601f19601f820116820180604052508101906110b5919061159d565b6110d2576040516312171d8360e31b815260040160405180910390fd5b60405182907f69833829d5691ae09424af7d16f73adf033451149ea9c2fc6fcb4c44108eef6790600090a2506107c86001600055565b611110611183565b6001600160a01b03811661117a5760405162461bcd60e51b815260206004820152602660248201527f4f776e61626c653a206e6577206f776e657220697320746865207a65726f206160448201526564647265737360d01b60648201526084015b60405180910390fd5b6107c88161128b565b6001546001600160a01b031633146107db5760405162461bcd60e51b815260206004820181905260248201527f4f776e61626c653a2063616c6c6572206973206e6f7420746865206f776e65726044820152606401611171565b60026000540361122f5760405162461bcd60e51b815260206004820152601f60248201527f5265656e7472616e637947756172643a207265656e7472616e742063616c6c006044820152606401611171565b6002600055565b61123e611320565b6001805460ff60a01b191690557f5db9ee0a495bf2e6ff9c91a7834c1ba4fdd244a5e8aa4e537bd38aeae4b073aa335b6040516001600160a01b03909116815260200160405180910390a1565b600180546001600160a01b038381166001600160a01b0319831681179093556040519116919082907f8be0079c531659141344cd1fd0a4f28419497f9722a3daafe3b4186f6b6457e090600090a35050565b6112e5611370565b6001805460ff60a01b1916600160a01b1790557f62e78cea01bee320cd4e420270b5ea74000d11b0c9f74754ebdbfc544b05a25861126e3390565b600154600160a01b900460ff166107db5760405162461bcd60e51b815260206004820152601460248201527314185d5cd8589b194e881b9bdd081c185d5cd95960621b6044820152606401611171565b600154600160a01b900460ff16156107db5760405162461bcd60e51b815260206004820152601060248201526f14185d5cd8589b194e881c185d5cd95960821b6044820152606401611171565b6000602082840312156113cf57600080fd5b5035919050565b634e487b7160e01b600052602160045260246000fd5b6004811061140a57634e487b7160e01b600052602160045260246000fd5b9052565b6001600160a01b03888116825287166020820152604081018690526060810185905260e0810161144160808301866113ec565b92151560a082015260c0015295945050505050565b80151581146107c857600080fd5b6000806040838503121561147757600080fd5b82359150602083013561148981611456565b809150509250929050565b80356001600160a01b03811681146114ab57600080fd5b919050565b600080604083850312156114c357600080fd5b6114cc83611494565b946020939093013593505050565b6001600160a01b03868116825285166020820152604081018490526060810183905260a0810161150d60808301846113ec565b9695505050505050565b6000806000806080858703121561152d57600080fd5b61153685611494565b935061154460208601611494565b93969395505050506040820135916060013590565b6000806040838503121561156c57600080fd5b50508035926020909101359150565b60006020828403121561158d57600080fd5b61159682611494565b9392505050565b6000602082840312156115af57600080fd5b815161159681611456565b6000602082840312156115cc57600080fd5b5051919050565b634e487b7160e01b600052601160045260246000fd5b6000600182016115fb576115fb6115d3565b5060010190565b80820180821115611615576116156115d3565b9291505056fea26469706673582212201010545cedaf538b5bff3e2516f2002f373159fe1320753791d0be105dd5adfb64736f6c63430008130033","opcodes":"PUSH1 0xA0 PUSH1 0x40 MSTORE PUSH1 0x1 PUSH1 0x3 SSTORE CALLVALUE DUP1 ISZERO PUSH2 0x15 JUMPI PUSH1 0x0 DUP1 REVERT JUMPDEST POP PUSH1 0x40 MLOAD PUSH2 0x17A6 CODESIZE SUB DUP1 PUSH2 0x17A6 DUP4 CODECOPY DUP2 ADD PUSH1 0x40 DUP2 SWAP1 MSTORE PUSH2 0x34 SWAP2 PUSH2 0xD9 JUMP JUMPDEST PUSH1 0x1 PUSH1 0x0 SSTORE PUSH2 0x42 CALLER PUSH2 0x87 JUMP JUMPDEST PUSH1 0x1 DUP1 SLOAD PUSH1 0xFF PUSH1 0xA0 SHL NOT AND SWAP1 SSTORE PUSH1 0x1 PUSH1 0x1 PUSH1 0xA0 SHL SUB DUP2 AND PUSH2 0x76 JUMPI PUSH1 0x40 MLOAD PUSH4 0xE6C4247B PUSH1 0xE0 SHL DUP2 MSTORE PUSH1 0x4 ADD PUSH1 0x40 MLOAD DUP1 SWAP2 SUB SWAP1 REVERT JUMPDEST PUSH1 0x1 PUSH1 0x1 PUSH1 0xA0 SHL SUB AND PUSH1 0x80 MSTORE PUSH2 0x109 JUMP JUMPDEST PUSH1 0x1 DUP1 SLOAD PUSH1 0x1 PUSH1 0x1 PUSH1 0xA0 SHL SUB DUP4 DUP2 AND PUSH1 0x1 PUSH1 0x1 PUSH1 0xA0 SHL SUB NOT DUP4 AND DUP2 OR SWAP1 SWAP4 SSTORE PUSH1 0x40 MLOAD SWAP2 AND SWAP2 SWAP1 DUP3 SWAP1 PUSH32 0x8BE0079C531659141344CD1FD0A4F28419497F9722A3DAAFE3B4186F6B6457E0 SWAP1 PUSH1 0x0 SWAP1 LOG3 POP POP JUMP JUMPDEST PUSH1 0x0 PUSH1 0x20 DUP3 DUP5 SUB SLT ISZERO PUSH2 0xEB JUMPI PUSH1 0x0 DUP1 REVERT JUMPDEST DUP2 MLOAD PUSH1 0x1 PUSH1 0x1 PUSH1 0xA0 SHL SUB DUP2 AND DUP2 EQ PUSH2 0x102 JUMPI PUSH1 0x0 DUP1 REVERT JUMPDEST SWAP4 SWAP3 POP POP POP JUMP JUMPDEST PUSH1 0x80 MLOAD PUSH2 0x1651 PUSH2 0x155 PUSH1 0x0 CODECOPY PUSH1 0x0 DUP2 DUP2 PUSH2 0x2C5 ADD MSTORE DUP2 DUP2 PUSH2 0x411 ADD MSTORE DUP2 DUP2 PUSH2 0x4DF ADD MSTORE DUP2 DUP2 PUSH2 0x705 ADD MSTORE DUP2 DUP2 PUSH2 0xB14 ADD MSTORE DUP2 DUP2 PUSH2 0xBC7 ADD MSTORE DUP2 DUP2 PUSH2 0xC7F ADD MSTORE PUSH2 0x1048 ADD MSTORE PUSH2 0x1651 PUSH1 0x0 RETURN INVALID PUSH1 0x80 PUSH1 0x40 MSTORE CALLVALUE DUP1 ISZERO PUSH2 0x10 JUMPI PUSH1 0x0 DUP1 REVERT JUMPDEST POP PUSH1 0x4 CALLDATASIZE LT PUSH2 0x12C JUMPI PUSH1 0x0 CALLDATALOAD PUSH1 0xE0 SHR DUP1 PUSH4 0x94F1825B GT PUSH2 0xAD JUMPI DUP1 PUSH4 0xD9B7ED91 GT PUSH2 0x71 JUMPI DUP1 PUSH4 0xD9B7ED91 EQ PUSH2 0x2C0 JUMPI DUP1 PUSH4 0xDDD84EE7 EQ PUSH2 0x2E7 JUMPI DUP1 PUSH4 0xED653164 EQ PUSH2 0x2FA JUMPI DUP1 PUSH4 0xF2FDE38B EQ PUSH2 0x30D JUMPI DUP1 PUSH4 0xFB0C7549 EQ PUSH2 0x320 JUMPI PUSH1 0x0 DUP1 REVERT JUMPDEST DUP1 PUSH4 0x94F1825B EQ PUSH2 0x259 JUMPI DUP1 PUSH4 0x9BB4EA1A EQ PUSH2 0x263 JUMPI DUP1 PUSH4 0xB49B0CB3 EQ PUSH2 0x276 JUMPI DUP1 PUSH4 0xB996EC2A EQ PUSH2 0x289 JUMPI DUP1 PUSH4 0xCCBAE5F6 EQ PUSH2 0x2AD JUMPI PUSH1 0x0 DUP1 REVERT JUMPDEST DUP1 PUSH4 0x715018A6 GT PUSH2 0xF4 JUMPI DUP1 PUSH4 0x715018A6 EQ PUSH2 0x1FA JUMPI DUP1 PUSH4 0x71635C03 EQ PUSH2 0x202 JUMPI DUP1 PUSH4 0x8456CB59 EQ PUSH2 0x215 JUMPI DUP1 PUSH4 0x89CB29DD EQ PUSH2 0x21D JUMPI DUP1 PUSH4 0x8DA5CB5B EQ PUSH2 0x234 JUMPI PUSH1 0x0 DUP1 REVERT JUMPDEST DUP1 PUSH4 0x12F52EE EQ PUSH2 0x131 JUMPI DUP1 PUSH4 0x34B25EE2 EQ PUSH2 0x1AC JUMPI DUP1 PUSH4 0x356F9DFD EQ PUSH2 0x1C1 JUMPI DUP1 PUSH4 0x3F4BA83A EQ PUSH2 0x1D4 JUMPI DUP1 PUSH4 0x5C975ABB EQ PUSH2 0x1DC JUMPI JUMPDEST PUSH1 0x0 DUP1 REVERT JUMPDEST PUSH2 0x190 PUSH2 0x13F CALLDATASIZE PUSH1 0x4 PUSH2 0x13BD JUMP JUMPDEST PUSH1 0x2 PUSH1 0x20 DUP2 SWAP1 MSTORE PUSH1 0x0 SWAP2 DUP3 MSTORE PUSH1 0x40 SWAP1 SWAP2 KECCAK256 DUP1 SLOAD PUSH1 0x1 DUP3 ADD SLOAD SWAP3 DUP3 ADD SLOAD PUSH1 0x3 DUP4 ADD SLOAD PUSH1 0x4 DUP5 ADD SLOAD PUSH1 0x5 SWAP1 SWAP5 ADD SLOAD PUSH1 0x1 PUSH1 0x1 PUSH1 0xA0 SHL SUB SWAP4 DUP5 AND SWAP6 SWAP1 SWAP4 AND SWAP4 SWAP2 SWAP3 SWAP1 SWAP2 PUSH1 0xFF DUP1 DUP3 AND SWAP3 PUSH2 0x100 SWAP1 SWAP3 DIV AND SWAP1 DUP8 JUMP JUMPDEST PUSH1 0x40 MLOAD PUSH2 0x1A3 SWAP8 SWAP7 SWAP6 SWAP5 SWAP4 SWAP3 SWAP2 SWAP1 PUSH2 0x140E JUMP JUMPDEST PUSH1 0x40 MLOAD DUP1 SWAP2 SUB SWAP1 RETURN JUMPDEST PUSH2 0x1BF PUSH2 0x1BA CALLDATASIZE PUSH1 0x4 PUSH2 0x1464 JUMP JUMPDEST PUSH2 0x329 JUMP JUMPDEST STOP JUMPDEST PUSH2 0x1BF PUSH2 0x1CF CALLDATASIZE PUSH1 0x4 PUSH2 0x13BD JUMP JUMPDEST PUSH2 0x5AA JUMP JUMPDEST PUSH2 0x1BF PUSH2 0x7CB JUMP JUMPDEST PUSH1 0x1 SLOAD PUSH1 0x1 PUSH1 0xA0 SHL SWAP1 DIV PUSH1 0xFF AND JUMPDEST PUSH1 0x40 MLOAD SWAP1 ISZERO ISZERO DUP2 MSTORE PUSH1 0x20 ADD PUSH2 0x1A3 JUMP JUMPDEST PUSH2 0x1BF PUSH2 0x7DD JUMP JUMPDEST PUSH2 0x1BF PUSH2 0x210 CALLDATASIZE PUSH1 0x4 PUSH2 0x13BD JUMP JUMPDEST PUSH2 0x7EF JUMP JUMPDEST PUSH2 0x1BF PUSH2 0x8E3 JUMP JUMPDEST PUSH2 0x226 PUSH1 0x3 SLOAD DUP2 JUMP JUMPDEST PUSH1 0x40 MLOAD SWAP1 DUP2 MSTORE PUSH1 0x20 ADD PUSH2 0x1A3 JUMP JUMPDEST PUSH1 0x1 SLOAD PUSH1 0x1 PUSH1 0x1 PUSH1 0xA0 SHL SUB AND JUMPDEST PUSH1 0x40 MLOAD PUSH1 0x1 PUSH1 0x1 PUSH1 0xA0 SHL SUB SWAP1 SWAP2 AND DUP2 MSTORE PUSH1 0x20 ADD PUSH2 0x1A3 JUMP JUMPDEST PUSH2 0x226 PUSH3 0x93A80 DUP2 JUMP JUMPDEST PUSH2 0x1EA PUSH2 0x271 CALLDATASIZE PUSH1 0x4 PUSH2 0x13BD JUMP JUMPDEST PUSH2 0x8F3 JUMP JUMPDEST PUSH2 0x1BF PUSH2 0x284 CALLDATASIZE PUSH1 0x4 PUSH2 0x14B0 JUMP JUMPDEST PUSH2 0x936 JUMP JUMPDEST PUSH2 0x29C PUSH2 0x297 CALLDATASIZE PUSH1 0x4 PUSH2 0x13BD JUMP JUMPDEST PUSH2 0x9DD JUMP JUMPDEST PUSH1 0x40 MLOAD PUSH2 0x1A3 SWAP6 SWAP5 SWAP4 SWAP3 SWAP2 SWAP1 PUSH2 0x14DA JUMP JUMPDEST PUSH2 0x226 PUSH2 0x2BB CALLDATASIZE PUSH1 0x4 PUSH2 0x1517 JUMP JUMPDEST PUSH2 0xA55 JUMP JUMPDEST PUSH2 0x241 PUSH32 0x0 DUP2 JUMP JUMPDEST PUSH2 0x1BF PUSH2 0x2F5 CALLDATASIZE PUSH1 0x4 PUSH2 0x1559 JUMP JUMPDEST PUSH2 0xE86 JUMP JUMPDEST PUSH2 0x1BF PUSH2 0x308 CALLDATASIZE PUSH1 0x4 PUSH2 0x13BD JUMP JUMPDEST PUSH2 0xF4D JUMP JUMPDEST PUSH2 0x1BF PUSH2 0x31B CALLDATASIZE PUSH1 0x4 PUSH2 0x157B JUMP JUMPDEST PUSH2 0x1108 JUMP JUMPDEST PUSH2 0x226 PUSH2 0x708 DUP2 JUMP JUMPDEST PUSH2 0x331 PUSH2 0x1183 JUMP JUMPDEST PUSH1 0x0 DUP3 DUP2 MSTORE PUSH1 0x2 PUSH1 0x20 MSTORE PUSH1 0x40 SWAP1 KECCAK256 DUP1 SLOAD PUSH1 0x1 PUSH1 0x1 PUSH1 0xA0 SHL SUB AND PUSH2 0x367 JUMPI PUSH1 0x40 MLOAD PUSH4 0xF1D80AB1 PUSH1 0xE0 SHL DUP2 MSTORE PUSH1 0x4 ADD PUSH1 0x40 MLOAD DUP1 SWAP2 SUB SWAP1 REVERT JUMPDEST PUSH1 0x0 PUSH1 0x4 DUP3 ADD SLOAD PUSH1 0xFF AND PUSH1 0x3 DUP2 GT ISZERO PUSH2 0x382 JUMPI PUSH2 0x382 PUSH2 0x13D6 JUMP JUMPDEST EQ PUSH2 0x3A0 JUMPI PUSH1 0x40 MLOAD PUSH4 0x268AFCC5 PUSH1 0xE2 SHL DUP2 MSTORE PUSH1 0x4 ADD PUSH1 0x40 MLOAD DUP1 SWAP2 SUB SWAP1 REVERT JUMPDEST PUSH1 0x4 DUP2 ADD SLOAD PUSH2 0x100 SWAP1 DIV PUSH1 0xFF AND PUSH2 0x3CA JUMPI PUSH1 0x40 MLOAD PUSH4 0x268AFCC5 PUSH1 0xE2 SHL DUP2 MSTORE PUSH1 0x4 ADD PUSH1 0x40 MLOAD DUP1 SWAP2 SUB SWAP1 REVERT JUMPDEST DUP2 ISZERO PUSH2 0x4A0 JUMPI PUSH1 0x4 DUP2 DUP2 ADD DUP1 SLOAD PUSH1 0xFF NOT AND PUSH1 0x1 SWAP1 DUP2 OR SWAP1 SWAP2 SSTORE DUP3 ADD SLOAD PUSH1 0x2 DUP4 ADD SLOAD PUSH1 0x40 MLOAD PUSH4 0xA9059CBB PUSH1 0xE0 SHL DUP2 MSTORE PUSH1 0x1 PUSH1 0x1 PUSH1 0xA0 SHL SUB SWAP3 DUP4 AND SWAP4 DUP2 ADD SWAP4 SWAP1 SWAP4 MSTORE PUSH1 0x24 DUP4 ADD MSTORE PUSH32 0x0 AND SWAP1 PUSH4 0xA9059CBB SWAP1 PUSH1 0x44 ADD PUSH1 0x20 PUSH1 0x40 MLOAD DUP1 DUP4 SUB DUP2 PUSH1 0x0 DUP8 GAS CALL ISZERO DUP1 ISZERO PUSH2 0x45A JUMPI RETURNDATASIZE PUSH1 0x0 DUP1 RETURNDATACOPY RETURNDATASIZE PUSH1 0x0 REVERT JUMPDEST POP POP POP POP PUSH1 0x40 MLOAD RETURNDATASIZE PUSH1 0x1F NOT PUSH1 0x1F DUP3 ADD AND DUP3 ADD DUP1 PUSH1 0x40 MSTORE POP DUP2 ADD SWAP1 PUSH2 0x47E SWAP2 SWAP1 PUSH2 0x159D JUMP JUMPDEST PUSH2 0x49B JUMPI PUSH1 0x40 MLOAD PUSH4 0x12171D83 PUSH1 0xE3 SHL DUP2 MSTORE PUSH1 0x4 ADD PUSH1 0x40 MLOAD DUP1 SWAP2 SUB SWAP1 REVERT JUMPDEST PUSH2 0x569 JUMP JUMPDEST PUSH1 0x4 DUP2 DUP2 ADD DUP1 SLOAD PUSH1 0xFF NOT AND PUSH1 0x2 SWAP1 DUP2 OR SWAP1 SWAP2 SSTORE DUP3 SLOAD SWAP1 DUP4 ADD SLOAD PUSH1 0x40 MLOAD PUSH4 0xA9059CBB PUSH1 0xE0 SHL DUP2 MSTORE PUSH1 0x1 PUSH1 0x1 PUSH1 0xA0 SHL SUB SWAP3 DUP4 AND SWAP4 DUP2 ADD SWAP4 SWAP1 SWAP4 MSTORE PUSH1 0x24 DUP4 ADD MSTORE PUSH32 0x0 AND SWAP1 PUSH4 0xA9059CBB SWAP1 PUSH1 0x44 ADD PUSH1 0x20 PUSH1 0x40 MLOAD DUP1 DUP4 SUB DUP2 PUSH1 0x0 DUP8 GAS CALL ISZERO DUP1 ISZERO PUSH2 0x528 JUMPI RETURNDATASIZE PUSH1 0x0 DUP1 RETURNDATACOPY RETURNDATASIZE PUSH1 0x0 REVERT JUMPDEST POP POP POP POP PUSH1 0x40 MLOAD RETURNDATASIZE PUSH1 0x1F NOT PUSH1 0x1F DUP3 ADD AND DUP3 ADD DUP1 PUSH1 0x40 MSTORE POP DUP2 ADD SWAP1 PUSH2 0x54C SWAP2 SWAP1 PUSH2 0x159D JUMP JUMPDEST PUSH2 0x569 JUMPI PUSH1 0x40 MLOAD PUSH4 0x12171D83 PUSH1 0xE3 SHL DUP2 MSTORE PUSH1 0x4 ADD PUSH1 0x40 MLOAD DUP1 SWAP2 SUB SWAP1 REVERT JUMPDEST DUP3 PUSH32 0x5A87909BFF68CAAAAF0B3FD9C74EECCC928832F879315E5C6FB7A73612F26C0C DUP4 PUSH1 0x40 MLOAD PUSH2 0x59D SWAP2 ISZERO ISZERO DUP2 MSTORE PUSH1 0x20 ADD SWAP1 JUMP JUMPDEST PUSH1 0x40 MLOAD DUP1 SWAP2 SUB SWAP1 LOG2 POP POP POP JUMP JUMPDEST PUSH2 0x5B2 PUSH2 0x11DD JUMP JUMPDEST PUSH1 0x0 DUP2 DUP2 MSTORE PUSH1 0x2 PUSH1 0x20 MSTORE PUSH1 0x40 SWAP1 KECCAK256 DUP1 SLOAD PUSH1 0x1 PUSH1 0x1 PUSH1 0xA0 SHL SUB AND PUSH2 0x5E8 JUMPI PUSH1 0x40 MLOAD PUSH4 0xF1D80AB1 PUSH1 0xE0 SHL DUP2 MSTORE PUSH1 0x4 ADD PUSH1 0x40 MLOAD DUP1 SWAP2 SUB SWAP1 REVERT JUMPDEST PUSH1 0x0 PUSH1 0x4 DUP3 ADD SLOAD PUSH1 0xFF AND PUSH1 0x3 DUP2 GT ISZERO PUSH2 0x603 JUMPI PUSH2 0x603 PUSH2 0x13D6 JUMP JUMPDEST EQ PUSH2 0x621 JUMPI PUSH1 0x40 MLOAD PUSH4 0x268AFCC5 PUSH1 0xE2 SHL DUP2 MSTORE PUSH1 0x4 ADD PUSH1 0x40 MLOAD DUP1 SWAP2 SUB SWAP1 REVERT JUMPDEST PUSH1 0x0 PUSH2 0x635 PUSH1 0x1 SLOAD PUSH1 0x1 PUSH1 0x1 PUSH1 0xA0 SHL SUB AND SWAP1 JUMP JUMPDEST PUSH1 0x3 DUP4 ADD SLOAD DUP4 SLOAD CALLER PUSH1 0x1 PUSH1 0x1 PUSH1 0xA0 SHL SUB SWAP4 DUP5 AND DUP2 EQ SWAP5 POP TIMESTAMP SWAP3 SWAP1 SWAP3 LT ISZERO SWAP3 PUSH1 0x0 SWAP3 SWAP2 AND EQ DUP1 PUSH2 0x670 JUMPI POP PUSH1 0x1 DUP5 ADD SLOAD PUSH1 0x1 PUSH1 0x1 PUSH1 0xA0 SHL SUB AND CALLER EQ JUMPDEST SWAP1 POP DUP3 ISZERO DUP1 ISZERO PUSH2 0x67E JUMPI POP DUP2 ISZERO JUMPDEST ISZERO PUSH2 0x69C JUMPI PUSH1 0x40 MLOAD PUSH4 0x5B3D0EDD PUSH1 0xE0 SHL DUP2 MSTORE PUSH1 0x4 ADD PUSH1 0x40 MLOAD DUP1 SWAP2 SUB SWAP1 REVERT JUMPDEST DUP3 ISZERO DUP1 ISZERO PUSH2 0x6A8 JUMPI POP DUP1 ISZERO JUMPDEST ISZERO PUSH2 0x6C6 JUMPI PUSH1 0x40 MLOAD PUSH4 0x1A27EAC3 PUSH1 0xE1 SHL DUP2 MSTORE PUSH1 0x4 ADD PUSH1 0x40 MLOAD DUP1 SWAP2 SUB SWAP1 REVERT JUMPDEST PUSH1 0x4 DUP5 DUP2 ADD DUP1 SLOAD PUSH1 0xFF NOT AND PUSH1 0x2 SWAP1 DUP2 OR SWAP1 SWAP2 SSTORE DUP6 SLOAD SWAP1 DUP7 ADD SLOAD PUSH1 0x40 MLOAD PUSH4 0xA9059CBB PUSH1 0xE0 SHL DUP2 MSTORE PUSH1 0x1 PUSH1 0x1 PUSH1 0xA0 SHL SUB SWAP3 DUP4 AND SWAP4 DUP2 ADD SWAP4 SWAP1 SWAP4 MSTORE PUSH1 0x24 DUP4 ADD MSTORE PUSH32 0x0 AND SWAP1 PUSH4 0xA9059CBB SWAP1 PUSH1 0x44 ADD PUSH1 0x20 PUSH1 0x40 MLOAD DUP1 DUP4 SUB DUP2 PUSH1 0x0 DUP8 GAS CALL ISZERO DUP1 ISZERO PUSH2 0x74E JUMPI RETURNDATASIZE PUSH1 0x0 DUP1 RETURNDATACOPY RETURNDATASIZE PUSH1 0x0 REVERT JUMPDEST POP POP POP POP PUSH1 0x40 MLOAD RETURNDATASIZE PUSH1 0x1F NOT PUSH1 0x1F DUP3 ADD AND DUP3 ADD DUP1 PUSH1 0x40 MSTORE POP DUP2 ADD SWAP1 PUSH2 0x772 SWAP2 SWAP1 PUSH2 0x159D JUMP JUMPDEST PUSH2 0x78F JUMPI PUSH1 0x40 MLOAD PUSH4 0x12171D83 PUSH1 0xE3 SHL DUP2 MSTORE PUSH1 0x4 ADD PUSH1 0x40 MLOAD DUP1 SWAP2 SUB SWAP1 REVERT JUMPDEST PUSH1 0x40 MLOAD DUP6 SWAP1 PUSH32 0x2BABB5CD458B6D41108D6D793A75E29CA524E7CAA20E2DA6C994462010920A72 SWAP1 PUSH1 0x0 SWAP1 LOG2 POP POP POP POP PUSH2 0x7C8 PUSH1 0x1 PUSH1 0x0 SSTORE JUMP JUMPDEST POP JUMP JUMPDEST PUSH2 0x7D3 PUSH2 0x1183 JUMP JUMPDEST PUSH2 0x7DB PUSH2 0x1236 JUMP JUMPDEST JUMP JUMPDEST PUSH2 0x7E5 PUSH2 0x1183 JUMP JUMPDEST PUSH2 0x7DB PUSH1 0x0 PUSH2 0x128B JUMP JUMPDEST PUSH1 0x0 DUP2 DUP2 MSTORE PUSH1 0x2 PUSH1 0x20 MSTORE PUSH1 0x40 SWAP1 KECCAK256 DUP1 SLOAD PUSH1 0x1 PUSH1 0x1 PUSH1 0xA0 SHL SUB AND PUSH2 0x825 JUMPI PUSH1 0x40 MLOAD PUSH4 0xF1D80AB1 PUSH1 0xE0 SHL DUP2 MSTORE PUSH1 0x4 ADD PUSH1 0x40 MLOAD DUP1 SWAP2 SUB SWAP1 REVERT JUMPDEST PUSH1 0x0 PUSH1 0x4 DUP3 ADD SLOAD PUSH1 0xFF AND PUSH1 0x3 DUP2 GT ISZERO PUSH2 0x840 JUMPI PUSH2 0x840 PUSH2 0x13D6 JUMP JUMPDEST EQ PUSH2 0x85E JUMPI PUSH1 0x40 MLOAD PUSH4 0x268AFCC5 PUSH1 0xE2 SHL DUP2 MSTORE PUSH1 0x4 ADD PUSH1 0x40 MLOAD DUP1 SWAP2 SUB SWAP1 REVERT JUMPDEST DUP1 SLOAD PUSH1 0x1 PUSH1 0x1 PUSH1 0xA0 SHL SUB AND CALLER EQ DUP1 ISZERO SWAP1 PUSH2 0x885 JUMPI POP PUSH1 0x1 DUP2 ADD SLOAD PUSH1 0x1 PUSH1 0x1 PUSH1 0xA0 SHL SUB AND CALLER EQ ISZERO JUMPDEST ISZERO PUSH2 0x8A3 JUMPI PUSH1 0x40 MLOAD PUSH4 0x1A27EAC3 PUSH1 0xE1 SHL DUP2 MSTORE PUSH1 0x4 ADD PUSH1 0x40 MLOAD DUP1 SWAP2 SUB SWAP1 REVERT JUMPDEST PUSH1 0x4 DUP2 ADD DUP1 SLOAD PUSH2 0xFF00 NOT AND PUSH2 0x100 OR SWAP1 SSTORE PUSH1 0x40 MLOAD DUP3 SWAP1 PUSH32 0x116F6B179359DB1A58A963FC783EE184E7844ABA306A3C2CE02DE3D7391D17C3 SWAP1 PUSH1 0x0 SWAP1 LOG2 POP POP JUMP JUMPDEST PUSH2 0x8EB PUSH2 0x1183 JUMP JUMPDEST PUSH2 0x7DB PUSH2 0x12DD JUMP JUMPDEST PUSH1 0x0 DUP2 DUP2 MSTORE PUSH1 0x2 PUSH1 0x20 MSTORE PUSH1 0x40 DUP2 KECCAK256 DUP1 SLOAD PUSH1 0x1 PUSH1 0x1 PUSH1 0xA0 SHL SUB AND PUSH2 0x929 JUMPI PUSH1 0x40 MLOAD PUSH4 0xF1D80AB1 PUSH1 0xE0 SHL DUP2 MSTORE PUSH1 0x4 ADD PUSH1 0x40 MLOAD DUP1 SWAP2 SUB SWAP1 REVERT JUMPDEST PUSH1 0x3 ADD SLOAD TIMESTAMP LT ISZERO SWAP3 SWAP2 POP POP JUMP JUMPDEST PUSH2 0x93E PUSH2 0x1183 JUMP JUMPDEST PUSH2 0x946 PUSH2 0x1320 JUMP JUMPDEST DUP2 PUSH1 0x1 PUSH1 0x1 PUSH1 0xA0 SHL SUB AND PUSH4 0xA9059CBB PUSH2 0x967 PUSH1 0x1 SLOAD PUSH1 0x1 PUSH1 0x1 PUSH1 0xA0 SHL SUB AND SWAP1 JUMP JUMPDEST PUSH1 0x40 MLOAD PUSH1 0x1 PUSH1 0x1 PUSH1 0xE0 SHL SUB NOT PUSH1 0xE0 DUP5 SWAP1 SHL AND DUP2 MSTORE PUSH1 0x1 PUSH1 0x1 PUSH1 0xA0 SHL SUB SWAP1 SWAP2 AND PUSH1 0x4 DUP3 ADD MSTORE PUSH1 0x24 DUP2 ADD DUP5 SWAP1 MSTORE PUSH1 0x44 ADD PUSH1 0x20 PUSH1 0x40 MLOAD DUP1 DUP4 SUB DUP2 PUSH1 0x0 DUP8 GAS CALL ISZERO DUP1 ISZERO PUSH2 0x9B4 JUMPI RETURNDATASIZE PUSH1 0x0 DUP1 RETURNDATACOPY RETURNDATASIZE PUSH1 0x0 REVERT JUMPDEST POP POP POP POP PUSH1 0x40 MLOAD RETURNDATASIZE PUSH1 0x1F NOT PUSH1 0x1F DUP3 ADD AND DUP3 ADD DUP1 PUSH1 0x40 MSTORE POP DUP2 ADD SWAP1 PUSH2 0x9D8 SWAP2 SWAP1 PUSH2 0x159D JUMP JUMPDEST POP POP POP JUMP JUMPDEST PUSH1 0x0 DUP2 DUP2 MSTORE PUSH1 0x2 PUSH1 0x20 MSTORE PUSH1 0x40 DUP2 KECCAK256 DUP1 SLOAD DUP3 SWAP2 DUP3 SWAP2 DUP3 SWAP2 DUP3 SWAP2 PUSH1 0x1 PUSH1 0x1 PUSH1 0xA0 SHL SUB AND PUSH2 0xA1B JUMPI PUSH1 0x40 MLOAD PUSH4 0xF1D80AB1 PUSH1 0xE0 SHL DUP2 MSTORE PUSH1 0x4 ADD PUSH1 0x40 MLOAD DUP1 SWAP2 SUB SWAP1 REVERT JUMPDEST DUP1 SLOAD PUSH1 0x1 DUP3 ADD SLOAD PUSH1 0x2 DUP4 ADD SLOAD PUSH1 0x3 DUP5 ADD SLOAD PUSH1 0x4 SWAP1 SWAP5 ADD SLOAD PUSH1 0x1 PUSH1 0x1 PUSH1 0xA0 SHL SUB SWAP4 DUP5 AND SWAP12 SWAP4 SWAP1 SWAP3 AND SWAP10 POP SWAP8 POP SWAP2 SWAP6 POP PUSH1 0xFF SWAP1 SWAP2 AND SWAP4 POP SWAP2 POP POP JUMP JUMPDEST PUSH1 0x0 PUSH2 0xA5F PUSH2 0x11DD JUMP JUMPDEST PUSH2 0xA67 PUSH2 0x1370 JUMP JUMPDEST PUSH1 0x1 PUSH1 0x1 PUSH1 0xA0 SHL SUB DUP6 AND ISZERO DUP1 PUSH2 0xA84 JUMPI POP PUSH1 0x1 PUSH1 0x1 PUSH1 0xA0 SHL SUB DUP5 AND ISZERO JUMPDEST ISZERO PUSH2 0xAA2 JUMPI PUSH1 0x40 MLOAD PUSH4 0xE6C4247B PUSH1 0xE0 SHL DUP2 MSTORE PUSH1 0x4 ADD PUSH1 0x40 MLOAD DUP1 SWAP2 SUB SWAP1 REVERT JUMPDEST DUP3 PUSH1 0x0 SUB PUSH2 0xAC3 JUMPI PUSH1 0x40 MLOAD PUSH4 0x162908E3 PUSH1 0xE1 SHL DUP2 MSTORE PUSH1 0x4 ADD PUSH1 0x40 MLOAD DUP1 SWAP2 SUB SWAP1 REVERT JUMPDEST PUSH2 0x708 DUP3 LT DUP1 PUSH2 0xAD5 JUMPI POP PUSH3 0x93A80 DUP3 GT JUMPDEST ISZERO PUSH2 0xAF3 JUMPI PUSH1 0x40 MLOAD PUSH4 0x7C688741 PUSH1 0xE1 SHL DUP2 MSTORE PUSH1 0x4 ADD PUSH1 0x40 MLOAD DUP1 SWAP2 SUB SWAP1 REVERT JUMPDEST PUSH1 0x40 MLOAD PUSH4 0x70A08231 PUSH1 0xE0 SHL DUP2 MSTORE PUSH1 0x1 PUSH1 0x1 PUSH1 0xA0 SHL SUB DUP7 DUP2 AND PUSH1 0x4 DUP4 ADD MSTORE DUP5 SWAP2 PUSH32 0x0 SWAP1 SWAP2 AND SWAP1 PUSH4 0x70A08231 SWAP1 PUSH1 0x24 ADD PUSH1 0x20 PUSH1 0x40 MLOAD DUP1 DUP4 SUB DUP2 DUP7 GAS STATICCALL ISZERO DUP1 ISZERO PUSH2 0xB5D JUMPI RETURNDATASIZE PUSH1 0x0 DUP1 RETURNDATACOPY RETURNDATASIZE PUSH1 0x0 REVERT JUMPDEST POP POP POP POP PUSH1 0x40 MLOAD RETURNDATASIZE PUSH1 0x1F NOT PUSH1 0x1F DUP3 ADD AND DUP3 ADD DUP1 PUSH1 0x40 MSTORE POP DUP2 ADD SWAP1 PUSH2 0xB81 SWAP2 SWAP1 PUSH2 0x15BA JUMP JUMPDEST LT ISZERO PUSH2 0xBA0 JUMPI PUSH1 0x40 MLOAD PUSH4 0x1E9ACF17 PUSH1 0xE3 SHL DUP2 MSTORE PUSH1 0x4 ADD PUSH1 0x40 MLOAD DUP1 SWAP2 SUB SWAP1 REVERT JUMPDEST PUSH1 0x40 MLOAD PUSH4 0x6EB1769F PUSH1 0xE1 SHL DUP2 MSTORE PUSH1 0x1 PUSH1 0x1 PUSH1 0xA0 SHL SUB DUP7 DUP2 AND PUSH1 0x4 DUP4 ADD MSTORE ADDRESS PUSH1 0x24 DUP4 ADD MSTORE DUP5 SWAP2 PUSH32 0x0 SWAP1 SWAP2 AND SWAP1 PUSH4 0xDD62ED3E SWAP1 PUSH1 0x44 ADD PUSH1 0x20 PUSH1 0x40 MLOAD DUP1 DUP4 SUB DUP2 DUP7 GAS STATICCALL ISZERO DUP1 ISZERO PUSH2 0xC10 JUMPI RETURNDATASIZE PUSH1 0x0 DUP1 RETURNDATACOPY RETURNDATASIZE PUSH1 0x0 REVERT JUMPDEST POP POP POP POP PUSH1 0x40 MLOAD RETURNDATASIZE PUSH1 0x1F NOT PUSH1 0x1F DUP3 ADD AND DUP3 ADD DUP1 PUSH1 0x40 MSTORE POP DUP2 ADD SWAP1 PUSH2 0xC34 SWAP2 SWAP1 PUSH2 0x15BA JUMP JUMPDEST LT ISZERO PUSH2 0xC53 JUMPI PUSH1 0x40 MLOAD PUSH4 0x1E9ACF17 PUSH1 0xE3 SHL DUP2 MSTORE PUSH1 0x4 ADD PUSH1 0x40 MLOAD DUP1 SWAP2 SUB SWAP1 REVERT JUMPDEST PUSH1 0x40 MLOAD PUSH4 0x23B872DD PUSH1 0xE0 SHL DUP2 MSTORE PUSH1 0x1 PUSH1 0x1 PUSH1 0xA0 SHL SUB DUP7 DUP2 AND PUSH1 0x4 DUP4 ADD MSTORE ADDRESS PUSH1 0x24 DUP4 ADD MSTORE PUSH1 0x44 DUP3 ADD DUP6 SWAP1 MSTORE PUSH32 0x0 AND SWAP1 PUSH4 0x23B872DD SWAP1 PUSH1 0x64 ADD PUSH1 0x20 PUSH1 0x40 MLOAD DUP1 DUP4 SUB DUP2 PUSH1 0x0 DUP8 GAS CALL ISZERO DUP1 ISZERO PUSH2 0xCC8 JUMPI RETURNDATASIZE PUSH1 0x0 DUP1 RETURNDATACOPY RETURNDATASIZE PUSH1 0x0 REVERT JUMPDEST POP POP POP POP PUSH1 0x40 MLOAD RETURNDATASIZE PUSH1 0x1F NOT PUSH1 0x1F DUP3 ADD AND DUP3 ADD DUP1 PUSH1 0x40 MSTORE POP DUP2 ADD SWAP1 PUSH2 0xCEC SWAP2 SWAP1 PUSH2 0x159D JUMP JUMPDEST PUSH2 0xD09 JUMPI PUSH1 0x40 MLOAD PUSH4 0x12171D83 PUSH1 0xE3 SHL DUP2 MSTORE PUSH1 0x4 ADD PUSH1 0x40 MLOAD DUP1 SWAP2 SUB SWAP1 REVERT JUMPDEST PUSH1 0x3 DUP1 SLOAD SWAP1 PUSH1 0x0 PUSH2 0xD19 DUP4 PUSH2 0x15E9 JUMP JUMPDEST SWAP2 SWAP1 POP SSTORE SWAP1 POP PUSH1 0x40 MLOAD DUP1 PUSH1 0xE0 ADD PUSH1 0x40 MSTORE DUP1 DUP7 PUSH1 0x1 PUSH1 0x1 PUSH1 0xA0 SHL SUB AND DUP2 MSTORE PUSH1 0x20 ADD DUP6 PUSH1 0x1 PUSH1 0x1 PUSH1 0xA0 SHL SUB AND DUP2 MSTORE PUSH1 0x20 ADD DUP5 DUP2 MSTORE PUSH1 0x20 ADD DUP4 TIMESTAMP PUSH2 0xD5A SWAP2 SWAP1 PUSH2 0x1602 JUMP JUMPDEST DUP2 MSTORE PUSH1 0x20 ADD PUSH1 0x0 DUP2 MSTORE PUSH1 0x0 PUSH1 0x20 DUP1 DUP4 ADD DUP3 SWAP1 MSTORE TIMESTAMP PUSH1 0x40 SWAP4 DUP5 ADD MSTORE DUP5 DUP3 MSTORE PUSH1 0x2 DUP1 DUP3 MSTORE SWAP2 DUP4 SWAP1 KECCAK256 DUP5 MLOAD DUP2 SLOAD PUSH1 0x1 PUSH1 0x1 PUSH1 0xA0 SHL SUB SWAP2 DUP3 AND PUSH1 0x1 PUSH1 0x1 PUSH1 0xA0 SHL SUB NOT SWAP2 DUP3 AND OR DUP4 SSTORE SWAP3 DUP7 ADD MLOAD PUSH1 0x1 DUP4 DUP2 ADD DUP1 SLOAD SWAP3 SWAP1 SWAP4 AND SWAP2 SWAP1 SWAP5 AND OR SWAP1 SSTORE SWAP3 DUP5 ADD MLOAD SWAP2 DUP4 ADD SWAP2 SWAP1 SWAP2 SSTORE PUSH1 0x60 DUP4 ADD MLOAD PUSH1 0x3 DUP1 DUP5 ADD SWAP2 SWAP1 SWAP2 SSTORE PUSH1 0x80 DUP5 ADD MLOAD PUSH1 0x4 DUP5 ADD DUP1 SLOAD SWAP2 SWAP4 SWAP1 SWAP3 PUSH1 0xFF NOT SWAP1 SWAP3 AND SWAP2 DUP5 SWAP1 DUP2 GT ISZERO PUSH2 0xDF4 JUMPI PUSH2 0xDF4 PUSH2 0x13D6 JUMP JUMPDEST MUL OR SWAP1 SSTORE POP PUSH1 0xA0 DUP3 ADD MLOAD DUP2 PUSH1 0x4 ADD PUSH1 0x1 PUSH2 0x100 EXP DUP2 SLOAD DUP2 PUSH1 0xFF MUL NOT AND SWAP1 DUP4 ISZERO ISZERO MUL OR SWAP1 SSTORE POP PUSH1 0xC0 DUP3 ADD MLOAD DUP2 PUSH1 0x5 ADD SSTORE SWAP1 POP POP DUP4 PUSH1 0x1 PUSH1 0x1 PUSH1 0xA0 SHL SUB AND DUP6 PUSH1 0x1 PUSH1 0x1 PUSH1 0xA0 SHL SUB AND DUP3 PUSH32 0x9405AD0A6208539879349284D71265479B1623846F70303DA1F9890D6E8C10A7 DUP7 PUSH1 0x40 MLOAD PUSH2 0xE6C SWAP2 DUP2 MSTORE PUSH1 0x20 ADD SWAP1 JUMP JUMPDEST PUSH1 0x40 MLOAD DUP1 SWAP2 SUB SWAP1 LOG4 PUSH2 0xE7E PUSH1 0x1 PUSH1 0x0 SSTORE JUMP JUMPDEST SWAP5 SWAP4 POP POP POP POP JUMP JUMPDEST PUSH2 0xE8E PUSH2 0x1183 JUMP JUMPDEST PUSH1 0x0 DUP3 DUP2 MSTORE PUSH1 0x2 PUSH1 0x20 MSTORE PUSH1 0x40 SWAP1 KECCAK256 DUP1 SLOAD PUSH1 0x1 PUSH1 0x1 PUSH1 0xA0 SHL SUB AND PUSH2 0xEC4 JUMPI PUSH1 0x40 MLOAD PUSH4 0xF1D80AB1 PUSH1 0xE0 SHL DUP2 MSTORE PUSH1 0x4 ADD PUSH1 0x40 MLOAD DUP1 SWAP2 SUB SWAP1 REVERT JUMPDEST PUSH1 0x0 PUSH1 0x4 DUP3 ADD SLOAD PUSH1 0xFF AND PUSH1 0x3 DUP2 GT ISZERO PUSH2 0xEDF JUMPI PUSH2 0xEDF PUSH2 0x13D6 JUMP JUMPDEST EQ PUSH2 0xEFD JUMPI PUSH1 0x40 MLOAD PUSH4 0x268AFCC5 PUSH1 0xE2 SHL DUP2 MSTORE PUSH1 0x4 ADD PUSH1 0x40 MLOAD DUP1 SWAP2 SUB SWAP1 REVERT JUMPDEST DUP2 DUP2 PUSH1 0x3 ADD PUSH1 0x0 DUP3 DUP3 SLOAD PUSH2 0xF11 SWAP2 SWAP1 PUSH2 0x1602 JUMP JUMPDEST SWAP1 SWAP2 SSTORE POP POP PUSH1 0x3 DUP2 ADD SLOAD PUSH1 0x40 MLOAD SWAP1 DUP2 MSTORE DUP4 SWAP1 PUSH32 0xA89016E73367255237A01020E483C84E13A32B02F995B36746C7A55F0D50C7D7 SWAP1 PUSH1 0x20 ADD PUSH2 0x59D JUMP JUMPDEST PUSH2 0xF55 PUSH2 0x11DD JUMP JUMPDEST PUSH1 0x0 DUP2 DUP2 MSTORE PUSH1 0x2 PUSH1 0x20 MSTORE PUSH1 0x40 SWAP1 KECCAK256 DUP1 SLOAD PUSH1 0x1 PUSH1 0x1 PUSH1 0xA0 SHL SUB AND PUSH2 0xF8B JUMPI PUSH1 0x40 MLOAD PUSH4 0xF1D80AB1 PUSH1 0xE0 SHL DUP2 MSTORE PUSH1 0x4 ADD PUSH1 0x40 MLOAD DUP1 SWAP2 SUB SWAP1 REVERT JUMPDEST PUSH1 0x0 PUSH1 0x4 DUP3 ADD SLOAD PUSH1 0xFF AND PUSH1 0x3 DUP2 GT ISZERO PUSH2 0xFA6 JUMPI PUSH2 0xFA6 PUSH2 0x13D6 JUMP JUMPDEST EQ PUSH2 0xFC4 JUMPI PUSH1 0x40 MLOAD PUSH4 0x268AFCC5 PUSH1 0xE2 SHL DUP2 MSTORE PUSH1 0x4 ADD PUSH1 0x40 MLOAD DUP1 SWAP2 SUB SWAP1 REVERT JUMPDEST DUP1 SLOAD PUSH1 0x1 PUSH1 0x1 PUSH1 0xA0 SHL SUB AND CALLER EQ DUP1 ISZERO SWAP1 PUSH2 0xFE9 JUMPI POP PUSH1 0x1 SLOAD PUSH1 0x1 PUSH1 0x1 PUSH1 0xA0 SHL SUB AND CALLER EQ ISZERO JUMPDEST ISZERO PUSH2 0x1007 JUMPI PUSH1 0x40 MLOAD PUSH4 0x1A27EAC3 PUSH1 0xE1 SHL DUP2 MSTORE PUSH1 0x4 ADD PUSH1 0x40 MLOAD DUP1 SWAP2 SUB SWAP1 REVERT JUMPDEST PUSH1 0x4 DUP2 DUP2 ADD DUP1 SLOAD PUSH1 0xFF NOT AND PUSH1 0x1 SWAP1 DUP2 OR SWAP1 SWAP2 SSTORE DUP3 ADD SLOAD PUSH1 0x2 DUP4 ADD SLOAD PUSH1 0x40 MLOAD PUSH4 0xA9059CBB PUSH1 0xE0 SHL DUP2 MSTORE PUSH1 0x1 PUSH1 0x1 PUSH1 0xA0 SHL SUB SWAP3 DUP4 AND SWAP4 DUP2 ADD SWAP4 SWAP1 SWAP4 MSTORE PUSH1 0x24 DUP4 ADD MSTORE PUSH32 0x0 AND SWAP1 PUSH4 0xA9059CBB SWAP1 PUSH1 0x44 ADD PUSH1 0x20 PUSH1 0x40 MLOAD DUP1 DUP4 SUB DUP2 PUSH1 0x0 DUP8 GAS CALL ISZERO DUP1 ISZERO PUSH2 0x1091 JUMPI RETURNDATASIZE PUSH1 0x0 DUP1 RETURNDATACOPY RETURNDATASIZE PUSH1 0x0 REVERT JUMPDEST POP POP POP POP PUSH1 0x40 MLOAD RETURNDATASIZE PUSH1 0x1F NOT PUSH1 0x1F DUP3 ADD AND DUP3 ADD DUP1 PUSH1 0x40 MSTORE POP DUP2 ADD SWAP1 PUSH2 0x10B5 SWAP2 SWAP1 PUSH2 0x159D JUMP JUMPDEST PUSH2 0x10D2 JUMPI PUSH1 0x40 MLOAD PUSH4 0x12171D83 PUSH1 0xE3 SHL DUP2 MSTORE PUSH1 0x4 ADD PUSH1 0x40 MLOAD DUP1 SWAP2 SUB SWAP1 REVERT JUMPDEST PUSH1 0x40 MLOAD DUP3 SWAP1 PUSH32 0x69833829D5691AE09424AF7D16F73ADF033451149EA9C2FC6FCB4C44108EEF67 SWAP1 PUSH1 0x0 SWAP1 LOG2 POP PUSH2 0x7C8 PUSH1 0x1 PUSH1 0x0 SSTORE JUMP JUMPDEST PUSH2 0x1110 PUSH2 0x1183 JUMP JUMPDEST PUSH1 0x1 PUSH1 0x1 PUSH1 0xA0 SHL SUB DUP2 AND PUSH2 0x117A JUMPI PUSH1 0x40 MLOAD PUSH3 0x461BCD PUSH1 0xE5 SHL DUP2 MSTORE PUSH1 0x20 PUSH1 0x4 DUP3 ADD MSTORE PUSH1 0x26 PUSH1 0x24 DUP3 ADD MSTORE PUSH32 0x4F776E61626C653A206E6577206F776E657220697320746865207A65726F2061 PUSH1 0x44 DUP3 ADD MSTORE PUSH6 0x646472657373 PUSH1 0xD0 SHL PUSH1 0x64 DUP3 ADD MSTORE PUSH1 0x84 ADD JUMPDEST PUSH1 0x40 MLOAD DUP1 SWAP2 SUB SWAP1 REVERT JUMPDEST PUSH2 0x7C8 DUP2 PUSH2 0x128B JUMP JUMPDEST PUSH1 0x1 SLOAD PUSH1 0x1 PUSH1 0x1 PUSH1 0xA0 SHL SUB AND CALLER EQ PUSH2 0x7DB JUMPI PUSH1 0x40 MLOAD PUSH3 0x461BCD PUSH1 0xE5 SHL DUP2 MSTORE PUSH1 0x20 PUSH1 0x4 DUP3 ADD DUP2 SWAP1 MSTORE PUSH1 0x24 DUP3 ADD MSTORE PUSH32 0x4F776E61626C653A2063616C6C6572206973206E6F7420746865206F776E6572 PUSH1 0x44 DUP3 ADD MSTORE PUSH1 0x64 ADD PUSH2 0x1171 JUMP JUMPDEST PUSH1 0x2 PUSH1 0x0 SLOAD SUB PUSH2 0x122F JUMPI PUSH1 0x40 MLOAD PUSH3 0x461BCD PUSH1 0xE5 SHL DUP2 MSTORE PUSH1 0x20 PUSH1 0x4 DUP3 ADD MSTORE PUSH1 0x1F PUSH1 0x24 DUP3 ADD MSTORE PUSH32 0x5265656E7472616E637947756172643A207265656E7472616E742063616C6C00 PUSH1 0x44 DUP3 ADD MSTORE PUSH1 0x64 ADD PUSH2 0x1171 JUMP JUMPDEST PUSH1 0x2 PUSH1 0x0 SSTORE JUMP JUMPDEST PUSH2 0x123E PUSH2 0x1320 JUMP JUMPDEST PUSH1 0x1 DUP1 SLOAD PUSH1 0xFF PUSH1 0xA0 SHL NOT AND SWAP1 SSTORE PUSH32 0x5DB9EE0A495BF2E6FF9C91A7834C1BA4FDD244A5E8AA4E537BD38AEAE4B073AA CALLER JUMPDEST PUSH1 0x40 MLOAD PUSH1 0x1 PUSH1 0x1 PUSH1 0xA0 SHL SUB SWAP1 SWAP2 AND DUP2 MSTORE PUSH1 0x20 ADD PUSH1 0x40 MLOAD DUP1 SWAP2 SUB SWAP1 LOG1 JUMP JUMPDEST PUSH1 0x1 DUP1 SLOAD PUSH1 0x1 PUSH1 0x1 PUSH1 0xA0 SHL SUB DUP4 DUP2 AND PUSH1 0x1 PUSH1 0x1 PUSH1 0xA0 SHL SUB NOT DUP4 AND DUP2 OR SWAP1 SWAP4 SSTORE PUSH1 0x40 MLOAD SWAP2 AND SWAP2 SWAP1 DUP3 SWAP1 PUSH32 0x8BE0079C531659141344CD1FD0A4F28419497F9722A3DAAFE3B4186F6B6457E0 SWAP1 PUSH1 0x0 SWAP1 LOG3 POP POP JUMP JUMPDEST PUSH2 0x12E5 PUSH2 0x1370 JUMP JUMPDEST PUSH1 0x1 DUP1 SLOAD PUSH1 0xFF PUSH1 0xA0 SHL NOT AND PUSH1 0x1 PUSH1 0xA0 SHL OR SWAP1 SSTORE PUSH32 0x62E78CEA01BEE320CD4E420270B5EA74000D11B0C9F74754EBDBFC544B05A258 PUSH2 0x126E CALLER SWAP1 JUMP JUMPDEST PUSH1 0x1 SLOAD PUSH1 0x1 PUSH1 0xA0 SHL SWAP1 DIV PUSH1 0xFF AND PUSH2 0x7DB JUMPI PUSH1 0x40 MLOAD PUSH3 0x461BCD PUSH1 0xE5 SHL DUP2 MSTORE PUSH1 0x20 PUSH1 0x4 DUP3 ADD MSTORE PUSH1 0x14 PUSH1 0x24 DUP3 ADD MSTORE PUSH20 0x14185D5CD8589B194E881B9BDD081C185D5CD959 PUSH1 0x62 SHL PUSH1 0x44 DUP3 ADD MSTORE PUSH1 0x64 ADD PUSH2 0x1171 JUMP JUMPDEST PUSH1 0x1 SLOAD PUSH1 0x1 PUSH1 0xA0 SHL SWAP1 DIV PUSH1 0xFF AND ISZERO PUSH2 0x7DB JUMPI PUSH1 0x40 MLOAD PUSH3 0x461BCD PUSH1 0xE5 SHL DUP2 MSTORE PUSH1 0x20 PUSH1 0x4 DUP3 ADD MSTORE PUSH1 0x10 PUSH1 0x24 DUP3 ADD MSTORE PUSH16 0x14185D5CD8589B194E881C185D5CD959 PUSH1 0x82 SHL PUSH1 0x44 DUP3 ADD MSTORE PUSH1 0x64 ADD PUSH2 0x1171 JUMP JUMPDEST PUSH1 0x0 PUSH1 0x20 DUP3 DUP5 SUB SLT ISZERO PUSH2 0x13CF JUMPI PUSH1 0x0 DUP1 REVERT JUMPDEST POP CALLDATALOAD SWAP2 SWAP1 POP JUMP JUMPDEST PUSH4 0x4E487B71 PUSH1 0xE0 SHL PUSH1 0x0 MSTORE PUSH1 0x21 PUSH1 0x4 MSTORE PUSH1 0x24 PUSH1 0x0 REVERT JUMPDEST PUSH1 0x4 DUP2 LT PUSH2 0x140A JUMPI PUSH4 0x4E487B71 PUSH1 0xE0 SHL PUSH1 0x0 MSTORE PUSH1 0x21 PUSH1 0x4 MSTORE PUSH1 0x24 PUSH1 0x0 REVERT JUMPDEST SWAP1 MSTORE JUMP JUMPDEST PUSH1 0x1 PUSH1 0x1 PUSH1 0xA0 SHL SUB DUP9 DUP2 AND DUP3 MSTORE DUP8 AND PUSH1 0x20 DUP3 ADD MSTORE PUSH1 0x40 DUP2 ADD DUP7 SWAP1 MSTORE PUSH1 0x60 DUP2 ADD DUP6 SWAP1 MSTORE PUSH1 0xE0 DUP2 ADD PUSH2 0x1441 PUSH1 0x80 DUP4 ADD DUP7 PUSH2 0x13EC JUMP JUMPDEST SWAP3 ISZERO ISZERO PUSH1 0xA0 DUP3 ADD MSTORE PUSH1 0xC0 ADD MSTORE SWAP6 SWAP5 POP POP POP POP POP JUMP JUMPDEST DUP1 ISZERO ISZERO DUP2 EQ PUSH2 0x7C8 JUMPI PUSH1 0x0 DUP1 REVERT JUMPDEST PUSH1 0x0 DUP1 PUSH1 0x40 DUP4 DUP6 SUB SLT ISZERO PUSH2 0x1477 JUMPI PUSH1 0x0 DUP1 REVERT JUMPDEST DUP3 CALLDATALOAD SWAP2 POP PUSH1 0x20 DUP4 ADD CALLDATALOAD PUSH2 0x1489 DUP2 PUSH2 0x1456 JUMP JUMPDEST DUP1 SWAP2 POP POP SWAP3 POP SWAP3 SWAP1 POP JUMP JUMPDEST DUP1 CALLDATALOAD PUSH1 0x1 PUSH1 0x1 PUSH1 0xA0 SHL SUB DUP2 AND DUP2 EQ PUSH2 0x14AB JUMPI PUSH1 0x0 DUP1 REVERT JUMPDEST SWAP2 SWAP1 POP JUMP JUMPDEST PUSH1 0x0 DUP1 PUSH1 0x40 DUP4 DUP6 SUB SLT ISZERO PUSH2 0x14C3 JUMPI PUSH1 0x0 DUP1 REVERT JUMPDEST PUSH2 0x14CC DUP4 PUSH2 0x1494 JUMP JUMPDEST SWAP5 PUSH1 0x20 SWAP4 SWAP1 SWAP4 ADD CALLDATALOAD SWAP4 POP POP POP JUMP JUMPDEST PUSH1 0x1 PUSH1 0x1 PUSH1 0xA0 SHL SUB DUP7 DUP2 AND DUP3 MSTORE DUP6 AND PUSH1 0x20 DUP3 ADD MSTORE PUSH1 0x40 DUP2 ADD DUP5 SWAP1 MSTORE PUSH1 0x60 DUP2 ADD DUP4 SWAP1 MSTORE PUSH1 0xA0 DUP2 ADD PUSH2 0x150D PUSH1 0x80 DUP4 ADD DUP5 PUSH2 0x13EC JUMP JUMPDEST SWAP7 SWAP6 POP POP POP POP POP POP JUMP JUMPDEST PUSH1 0x0 DUP1 PUSH1 0x0 DUP1 PUSH1 0x80 DUP6 DUP8 SUB SLT ISZERO PUSH2 0x152D JUMPI PUSH1 0x0 DUP1 REVERT JUMPDEST PUSH2 0x1536 DUP6 PUSH2 0x1494 JUMP JUMPDEST SWAP4 POP PUSH2 0x1544 PUSH1 0x20 DUP7 ADD PUSH2 0x1494 JUMP JUMPDEST SWAP4 SWAP7 SWAP4 SWAP6 POP POP POP POP PUSH1 0x40 DUP3 ADD CALLDATALOAD SWAP2 PUSH1 0x60 ADD CALLDATALOAD SWAP1 JUMP JUMPDEST PUSH1 0x0 DUP1 PUSH1 0x40 DUP4 DUP6 SUB SLT ISZERO PUSH2 0x156C JUMPI PUSH1 0x0 DUP1 REVERT JUMPDEST POP POP DUP1 CALLDATALOAD SWAP3 PUSH1 0x20 SWAP1 SWAP2 ADD CALLDATALOAD SWAP2 POP JUMP JUMPDEST PUSH1 0x0 PUSH1 0x20 DUP3 DUP5 SUB SLT ISZERO PUSH2 0x158D JUMPI PUSH1 0x0 DUP1 REVERT JUMPDEST PUSH2 0x1596 DUP3 PUSH2 0x1494 JUMP JUMPDEST SWAP4 SWAP3 POP POP POP JUMP JUMPDEST PUSH1 0x0 PUSH1 0x20 DUP3 DUP5 SUB SLT ISZERO PUSH2 0x15AF JUMPI PUSH1 0x0 DUP1 REVERT JUMPDEST DUP2 MLOAD PUSH2 0x1596 DUP2 PUSH2 0x1456 JUMP JUMPDEST PUSH1 0x0 PUSH1 0x20 DUP3 DUP5 SUB SLT ISZERO PUSH2 0x15CC JUMPI PUSH1 0x0 DUP1 REVERT JUMPDEST POP MLOAD SWAP2 SWAP1 POP JUMP JUMPDEST PUSH4 0x4E487B71 PUSH1 0xE0 SHL PUSH1 0x0 MSTORE PUSH1 0x11 PUSH1 0x4 MSTORE PUSH1 0x24 PUSH1 0x0 REVERT JUMPDEST PUSH1 0x0 PUSH1 0x1 DUP3 ADD PUSH2 0x15FB JUMPI PUSH2 0x15FB PUSH2 0x15D3 JUMP JUMPDEST POP PUSH1 0x1 ADD SWAP1 JUMP JUMPDEST DUP1 DUP3 ADD DUP1 DUP3 GT ISZERO PUSH2 0x1615 JUMPI PUSH2 0x1615 PUSH2 0x15D3 JUMP JUMPDEST SWAP3 SWAP2 POP POP JUMP INVALID LOG2 PUSH5 0x6970667358 0x22 SLT KECCAK256 LT LT SLOAD 0x5C 0xED 0xAF MSTORE8 DUP12 JUMPDEST SELFDESTRUCT RETURNDATACOPY 0x25 AND CALLCODE STOP 0x2F CALLDATACOPY BALANCE MSIZE INVALID SGT KECCAK256 PUSH22 0x3791D0BE105DD5ADFB64736F6C634300081300330000 "},"methodIdentifiers":{"MAX_TIMELOCK()":"94f1825b","MIN_TIMELOCK()":"fb0c7549","cesToken()":"d9b7ed91","createEscrow(address,address,uint256,uint256)":"ccbae5f6","emergencyTokenRecovery(address,uint256)":"b49b0cb3","escrows(uint256)":"012f52ee","extendTimelock(uint256,uint256)":"ddd84ee7","getEscrowDetails(uint256)":"b996ec2a","initiateDispute(uint256)":"71635c03","isEscrowExpired(uint256)":"9bb4ea1a","nextEscrowId()":"89cb29dd","owner()":"8da5cb5b","pause()":"8456cb59","paused()":"5c975abb","refundEscrow(uint256)":"356f9dfd","releaseEscrow(uint256)":"ed653164","renounceOwnership()":"715018a6","resolveDispute(uint256,bool)":"34b25ee2","transferOwnership(address)":"f2fde38b","unpause()":"3f4ba83a"}}}}}