{
  "_format": "hh-sol-artifact-1",
  "contractName": "P2PEscrow",
  "sourceName": "contracts/P2PEscrow.sol",
  "abi": [
    {
      "inputs": [
        {
          "internalType": "address",
          "name": "_cesToken",
          "type": "address"
        }
      ],
      "stateMutability": "nonpayable",
      "type": "constructor"
    },
    {
      "inputs": [],
      "name": "EscrowExpired",
      "type": "error"
    },
    {
      "inputs": [],
      "name": "EscrowNotExpired",
      "type": "error"
    },
    {
      "inputs": [],
      "name": "EscrowNotFound",
      "type": "error"
    },
    {
      "inputs": [],
      "name": "InsufficientBalance",
      "type": "error"
    },
    {
      "inputs": [],
      "name": "InvalidAddress",
      "type": "error"
    },
    {
      "inputs": [],
      "name": "InvalidAmount",
      "type": "error"
    },
    {
      "inputs": [],
      "name": "InvalidEscrowStatus",
      "type": "error"
    },
    {
      "inputs": [],
      "name": "InvalidTimelock",
      "type": "error"
    },
    {
      "inputs": [],
      "name": "TransferFailed",
      "type": "error"
    },
    {
      "inputs": [],
      "name": "UnauthorizedAccess",
      "type": "error"
    },
    {
      "anonymous": false,
      "inputs": [
        {
          "indexed": true,
          "internalType": "uint256",
          "name": "escrowId",
          "type": "uint256"
        }
      ],
      "name": "DisputeInitiated",
      "type": "event"
    },
    {
      "anonymous": false,
      "inputs": [
        {
          "indexed": true,
          "internalType": "uint256",
          "name": "escrowId",
          "type": "uint256"
        },
        {
          "indexed": false,
          "internalType": "bool",
          "name": "favorBuyer",
          "type": "bool"
        }
      ],
      "name": "DisputeResolved",
      "type": "event"
    },
    {
      "anonymous": false,
      "inputs": [
        {
          "indexed": true,
          "internalType": "uint256",
          "name": "escrowId",
          "type": "uint256"
        },
        {
          "indexed": true,
          "internalType": "address",
          "name": "seller",
          "type": "address"
        },
        {
          "indexed": true,
          "internalType": "address",
          "name": "buyer",
          "type": "address"
        },
        {
          "indexed": false,
          "internalType": "uint256",
          "name": "amount",
          "type": "uint256"
        }
      ],
      "name": "EscrowCreated",
      "type": "event"
    },
    {
      "anonymous": false,
      "inputs": [
        {
          "indexed": true,
          "internalType": "uint256",
          "name": "escrowId",
          "type": "uint256"
        }
      ],
      "name": "EscrowRefunded",
      "type": "event"
    },
    {
      "anonymous": false,
      "inputs": [
        {
          "indexed": true,
          "internalType": "uint256",
          "name": "escrowId",
          "type": "uint256"
        }
      ],
      "name": "EscrowReleased",
      "type": "event"
    },
    {
      "anonymous": false,
      "inputs": [
        {
          "indexed": true,
          "internalType": "address",
          "name": "previousOwner",
          "type": "address"
        },
        {
          "indexed": true,
          "internalType": "address",
          "name": "newOwner",
          "type": "address"
        }
      ],
      "name": "OwnershipTransferred",
      "type": "event"
    },
    {
      "anonymous": false,
      "inputs": [
        {
          "indexed": false,
          "internalType": "address",
          "name": "account",
          "type": "address"
        }
      ],
      "name": "Paused",
      "type": "event"
    },
    {
      "anonymous": false,
      "inputs": [
        {
          "indexed": true,
          "internalType": "uint256",
          "name": "escrowId",
          "type": "uint256"
        },
        {
          "indexed": false,
          "internalType": "uint256",
          "name": "newTimelock",
          "type": "uint256"
        }
      ],
      "name": "TimelockExtended",
      "type": "event"
    },
    {
      "anonymous": false,
      "inputs": [
        {
          "indexed": false,
          "internalType": "address",
          "name": "account",
          "type": "address"
        }
      ],
      "name": "Unpaused",
      "type": "event"
    },
    {
      "inputs": [],
      "name": "MAX_TIMELOCK",
      "outputs": [
        {
          "internalType": "uint256",
          "name": "",
          "type": "uint256"
        }
      ],
      "stateMutability": "view",
      "type": "function"
    },
    {
      "inputs": [],
      "name": "MIN_TIMELOCK",
      "outputs": [
        {
          "internalType": "uint256",
          "name": "",
          "type": "uint256"
        }
      ],
      "stateMutability": "view",
      "type": "function"
    },
    {
      "inputs": [],
      "name": "cesToken",
      "outputs": [
        {
          "internalType": "contract IERC20",
          "name": "",
          "type": "address"
        }
      ],
      "stateMutability": "view",
      "type": "function"
    },
    {
      "inputs": [
        {
          "internalType": "address",
          "name": "seller",
          "type": "address"
        },
        {
          "internalType": "address",
          "name": "buyer",
          "type": "address"
        },
        {
          "internalType": "uint256",
          "name": "amount",
          "type": "uint256"
        },
        {
          "internalType": "uint256",
          "name": "timelock",
          "type": "uint256"
        }
      ],
      "name": "createEscrow",
      "outputs": [
        {
          "internalType": "uint256",
          "name": "escrowId",
          "type": "uint256"
        }
      ],
      "stateMutability": "nonpayable",
      "type": "function"
    },
    {
      "inputs": [
        {
          "internalType": "address",
          "name": "token",
          "type": "address"
        },
        {
          "internalType": "uint256",
          "name": "amount",
          "type": "uint256"
        }
      ],
      "name": "emergencyTokenRecovery",
      "outputs": [],
      "stateMutability": "nonpayable",
      "type": "function"
    },
    {
      "inputs": [
        {
          "internalType": "uint256",
          "name": "",
          "type": "uint256"
        }
      ],
      "name": "escrows",
      "outputs": [
        {
          "internalType": "address",
          "name": "seller",
          "type": "address"
        },
        {
          "internalType": "address",
          "name": "buyer",
          "type": "address"
        },
        {
          "internalType": "uint256",
          "name": "amount",
          "type": "uint256"
        },
        {
          "internalType": "uint256",
          "name": "timelock",
          "type": "uint256"
        },
        {
          "internalType": "enum P2PEscrow.EscrowStatus",
          "name": "status",
          "type": "uint8"
        },
        {
          "internalType": "bool",
          "name": "disputeInitiated",
          "type": "bool"
        },
        {
          "internalType": "uint256",
          "name": "createdAt",
          "type": "uint256"
        }
      ],
      "stateMutability": "view",
      "type": "function"
    },
    {
      "inputs": [
        {
          "internalType": "uint256",
          "name": "escrowId",
          "type": "uint256"
        },
        {
          "internalType": "uint256",
          "name": "additionalTime",
          "type": "uint256"
        }
      ],
      "name": "extendTimelock",
      "outputs": [],
      "stateMutability": "nonpayable",
      "type": "function"
    },
    {
      "inputs": [
        {
          "internalType": "uint256",
          "name": "escrowId",
          "type": "uint256"
        }
      ],
      "name": "getEscrowDetails",
      "outputs": [
        {
          "internalType": "address",
          "name": "seller",
          "type": "address"
        },
        {
          "internalType": "address",
          "name": "buyer",
          "type": "address"
        },
        {
          "internalType": "uint256",
          "name": "amount",
          "type": "uint256"
        },
        {
          "internalType": "uint256",
          "name": "timelock",
          "type": "uint256"
        },
        {
          "internalType": "enum P2PEscrow.EscrowStatus",
          "name": "status",
          "type": "uint8"
        }
      ],
      "stateMutability": "view",
      "type": "function"
    },
    {
      "inputs": [
        {
          "internalType": "uint256",
          "name": "escrowId",
          "type": "uint256"
        }
      ],
      "name": "initiateDispute",
      "outputs": [],
      "stateMutability": "nonpayable",
      "type": "function"
    },
    {
      "inputs": [
        {
          "internalType": "uint256",
          "name": "escrowId",
          "type": "uint256"
        }
      ],
      "name": "isEscrowExpired",
      "outputs": [
        {
          "internalType": "bool",
          "name": "",
          "type": "bool"
        }
      ],
      "stateMutability": "view",
      "type": "function"
    },
    {
      "inputs": [],
      "name": "nextEscrowId",
      "outputs": [
        {
          "internalType": "uint256",
          "name": "",
          "type": "uint256"
        }
      ],
      "stateMutability": "view",
      "type": "function"
    },
    {
      "inputs": [],
      "name": "owner",
      "outputs": [
        {
          "internalType": "address",
          "name": "",
          "type": "address"
        }
      ],
      "stateMutability": "view",
      "type": "function"
    },
    {
      "inputs": [],
      "name": "pause",
      "outputs": [],
      "stateMutability": "nonpayable",
      "type": "function"
    },
    {
      "inputs": [],
      "name": "paused",
      "outputs": [
        {
          "internalType": "bool",
          "name": "",
          "type": "bool"
        }
      ],
      "stateMutability": "view",
      "type": "function"
    },
    {
      "inputs": [
        {
          "internalType": "uint256",
          "name": "escrowId",
          "type": "uint256"
        }
      ],
      "name": "refundEscrow",
      "outputs": [],
      "stateMutability": "nonpayable",
      "type": "function"
    },
    {
      "inputs": [
        {
          "internalType": "uint256",
          "name": "escrowId",
          "type": "uint256"
        }
      ],
      "name": "releaseEscrow",
      "outputs": [],
      "stateMutability": "nonpayable",
      "type": "function"
    },
    {
      "inputs": [],
      "name": "renounceOwnership",
      "outputs": [],
      "stateMutability": "nonpayable",
      "type": "function"
    },
    {
      "inputs": [
        {
          "internalType": "uint256",
          "name": "escrowId",
          "type": "uint256"
        },
        {
          "internalType": "bool",
          "name": "favorBuyer",
          "type": "bool"
        }
      ],
      "name": "resolveDispute",
      "outputs": [],
      "stateMutability": "nonpayable",
      "type": "function"
    },
    {
      "inputs": [
        {
          "internalType": "address",
          "name": "newOwner",
          "type": "address"
        }
      ],
      "name": "transferOwnership",
      "outputs": [],
      "stateMutability": "nonpayable",
      "type": "function"
    },
    {
      "inputs": [],
      "name": "unpause",
      "outputs": [],
      "stateMutability": "nonpayable",
      "type": "function"
    }
  ],
  "bytecode": "0x60a0604052600160035534801561001557600080fd5b506040516117a63803806117a6833981016040819052610034916100d9565b600160005561004233610087565b6001805460ff60a01b191690556001600160a01b0381166100765760405163e6c4247b60e01b815260040160405180910390fd5b6001600160a01b0316608052610109565b600180546001600160a01b038381166001600160a01b0319831681179093556040519116919082907f8be0079c531659141344cd1fd0a4f28419497f9722a3daafe3b4186f6b6457e090600090a35050565b6000602082840312156100eb57600080fd5b81516001600160a01b038116811461010257600080fd5b9392505050565b608051611651610155600039600081816102c501528181610411015281816104df0152818161070501528181610b1401528181610bc701528181610c7f015261104801526116516000f3fe608060405234801561001057600080fd5b506004361061012c5760003560e01c806394f1825b116100ad578063d9b7ed9111610071578063d9b7ed91146102c0578063ddd84ee7146102e7578063ed653164146102fa578063f2fde38b1461030d578063fb0c75491461032057600080fd5b806394f1825b146102595780639bb4ea1a14610263578063b49b0cb314610276578063b996ec2a14610289578063ccbae5f6146102ad57600080fd5b8063715018a6116100f4578063715018a6146101fa57806371635c03146102025780638456cb591461021557806389cb29dd1461021d5780638da5cb5b1461023457600080fd5b8063012f52ee1461013157806334b25ee2146101ac578063356f9dfd146101c15780633f4ba83a146101d45780635c975abb146101dc575b600080fd5b61019061013f3660046113bd565b60026020819052600091825260409091208054600182015492820154600383015460048401546005909401546001600160a01b0393841695909316939192909160ff80821692610100909204169087565b6040516101a3979695949392919061140e565b60405180910390f35b6101bf6101ba366004611464565b610329565b005b6101bf6101cf3660046113bd565b6105aa565b6101bf6107cb565b600154600160a01b900460ff165b60405190151581526020016101a3565b6101bf6107dd565b6101bf6102103660046113bd565b6107ef565b6101bf6108e3565b61022660035481565b6040519081526020016101a3565b6001546001600160a01b03165b6040516001600160a01b0390911681526020016101a3565b61022662093a8081565b6101ea6102713660046113bd565b6108f3565b6101bf6102843660046114b0565b610936565b61029c6102973660046113bd565b6109dd565b6040516101a39594939291906114da565b6102266102bb366004611517565b610a55565b6102417f000000000000000000000000000000000000000000000000000000000000000081565b6101bf6102f5366004611559565b610e86565b6101bf6103083660046113bd565b610f4d565b6101bf61031b36600461157b565b611108565b61022661070881565b610331611183565b600082815260026020526040902080546001600160a01b03166103675760405163f1d80ab160e01b815260040160405180910390fd5b6000600482015460ff166003811115610382576103826113d6565b146103a05760405163268afcc560e21b815260040160405180910390fd5b6004810154610100900460ff166103ca5760405163268afcc560e21b815260040160405180910390fd5b81156104a0576004818101805460ff19166001908117909155820154600283015460405163a9059cbb60e01b81526001600160a01b039283169381019390935260248301527f0000000000000000000000000000000000000000000000000000000000000000169063a9059cbb906044016020604051808303816000875af115801561045a573d6000803e3d6000fd5b505050506040513d601f19601f8201168201806040525081019061047e919061159d565b61049b576040516312171d8360e31b815260040160405180910390fd5b610569565b6004818101805460ff1916600290811790915582549083015460405163a9059cbb60e01b81526001600160a01b039283169381019390935260248301527f0000000000000000000000000000000000000000000000000000000000000000169063a9059cbb906044016020604051808303816000875af1158015610528573d6000803e3d6000fd5b505050506040513d601f19601f8201168201806040525081019061054c919061159d565b610569576040516312171d8360e31b815260040160405180910390fd5b827f5a87909bff68caaaaf0b3fd9c74eeccc928832f879315e5c6fb7a73612f26c0c8360405161059d911515815260200190565b60405180910390a2505050565b6105b26111dd565b600081815260026020526040902080546001600160a01b03166105e85760405163f1d80ab160e01b815260040160405180910390fd5b6000600482015460ff166003811115610603576106036113d6565b146106215760405163268afcc560e21b815260040160405180910390fd5b60006106356001546001600160a01b031690565b60038301548354336001600160a01b03938416811494504292909210159260009291161480610670575060018401546001600160a01b031633145b90508215801561067e575081155b1561069c57604051635b3d0edd60e01b815260040160405180910390fd5b821580156106a8575080155b156106c657604051631a27eac360e11b815260040160405180910390fd5b6004848101805460ff1916600290811790915585549086015460405163a9059cbb60e01b81526001600160a01b039283169381019390935260248301527f0000000000000000000000000000000000000000000000000000000000000000169063a9059cbb906044016020604051808303816000875af115801561074e573d6000803e3d6000fd5b505050506040513d601f19601f82011682018060405250810190610772919061159d565b61078f576040516312171d8360e31b815260040160405180910390fd5b60405185907f2babb5cd458b6d41108d6d793a75e29ca524e7caa20e2da6c994462010920a7290600090a2505050506107c86001600055565b50565b6107d3611183565b6107db611236565b565b6107e5611183565b6107db600061128b565b600081815260026020526040902080546001600160a01b03166108255760405163f1d80ab160e01b815260040160405180910390fd5b6000600482015460ff166003811115610840576108406113d6565b1461085e5760405163268afcc560e21b815260040160405180910390fd5b80546001600160a01b03163314801590610885575060018101546001600160a01b03163314155b156108a357604051631a27eac360e11b815260040160405180910390fd5b60048101805461ff00191661010017905560405182907f116f6b179359db1a58a963fc783ee184e7844aba306a3c2ce02de3d7391d17c390600090a25050565b6108eb611183565b6107db6112dd565b600081815260026020526040812080546001600160a01b03166109295760405163f1d80ab160e01b815260040160405180910390fd5b6003015442101592915050565b61093e611183565b610946611320565b816001600160a01b031663a9059cbb6109676001546001600160a01b031690565b6040516001600160e01b031960e084901b1681526001600160a01b039091166004820152602481018490526044016020604051808303816000875af11580156109b4573d6000803e3d6000fd5b505050506040513d601f19601f820116820180604052508101906109d8919061159d565b505050565b6000818152600260205260408120805482918291829182916001600160a01b0316610a1b5760405163f1d80ab160e01b815260040160405180910390fd5b80546001820154600283015460038401546004909401546001600160a01b039384169b939092169950975091955060ff9091169350915050565b6000610a5f6111dd565b610a67611370565b6001600160a01b0385161580610a8457506001600160a01b038416155b15610aa25760405163e6c4247b60e01b815260040160405180910390fd5b82600003610ac35760405163162908e360e11b815260040160405180910390fd5b610708821080610ad5575062093a8082115b15610af357604051637c68874160e11b815260040160405180910390fd5b6040516370a0823160e01b81526001600160a01b03868116600483015284917f0000000000000000000000000000000000000000000000000000000000000000909116906370a0823190602401602060405180830381865afa158015610b5d573d6000803e3d6000fd5b505050506040513d601f19601f82011682018060405250810190610b8191906115ba565b1015610ba057604051631e9acf1760e31b815260040160405180910390fd5b604051636eb1769f60e11b81526001600160a01b03868116600483015230602483015284917f00000000000000000000000000000000000000000000000000000000000000009091169063dd62ed3e90604401602060405180830381865afa158015610c10573d6000803e3d6000fd5b505050506040513d601f19601f82011682018060405250810190610c3491906115ba565b1015610c5357604051631e9acf1760e31b815260040160405180910390fd5b6040516323b872dd60e01b81526001600160a01b038681166004830152306024830152604482018590527f000000000000000000000000000000000000000000000000000000000000000016906323b872dd906064016020604051808303816000875af1158015610cc8573d6000803e3d6000fd5b505050506040513d601f19601f82011682018060405250810190610cec919061159d565b610d09576040516312171d8360e31b815260040160405180910390fd5b60038054906000610d19836115e9565b9190505590506040518060e00160405280866001600160a01b03168152602001856001600160a01b031681526020018481526020018342610d5a9190611602565b8152602001600081526000602080830182905242604093840152848252600280825291839020845181546001600160a01b039182166001600160a01b0319918216178355928601516001838101805492909316919094161790559284015191830191909155606083015160038084019190915560808401516004840180549193909260ff19909216918490811115610df457610df46113d6565b021790555060a08201518160040160016101000a81548160ff02191690831515021790555060c08201518160050155905050836001600160a01b0316856001600160a01b0316827f9405ad0a6208539879349284d71265479b1623846f70303da1f9890d6e8c10a786604051610e6c91815260200190565b60405180910390a4610e7e6001600055565b949350505050565b610e8e611183565b600082815260026020526040902080546001600160a01b0316610ec45760405163f1d80ab160e01b815260040160405180910390fd5b6000600482015460ff166003811115610edf57610edf6113d6565b14610efd5760405163268afcc560e21b815260040160405180910390fd5b81816003016000828254610f119190611602565b9091555050600381015460405190815283907fa89016e73367255237a01020e483c84e13a32b02f995b36746c7a55f0d50c7d79060200161059d565b610f556111dd565b600081815260026020526040902080546001600160a01b0316610f8b5760405163f1d80ab160e01b815260040160405180910390fd5b6000600482015460ff166003811115610fa657610fa66113d6565b14610fc45760405163268afcc560e21b815260040160405180910390fd5b80546001600160a01b03163314801590610fe957506001546001600160a01b03163314155b1561100757604051631a27eac360e11b815260040160405180910390fd5b6004818101805460ff19166001908117909155820154600283015460405163a9059cbb60e01b81526001600160a01b039283169381019390935260248301527f0000000000000000000000000000000000000000000000000000000000000000169063a9059cbb906044016020604051808303816000875af1158015611091573d6000803e3d6000fd5b505050506040513d601f19601f820116820180604052508101906110b5919061159d565b6110d2576040516312171d8360e31b815260040160405180910390fd5b60405182907f69833829d5691ae09424af7d16f73adf033451149ea9c2fc6fcb4c44108eef6790600090a2506107c86001600055565b611110611183565b6001600160a01b03811661117a5760405162461bcd60e51b815260206004820152602660248201527f4f776e61626c653a206e6577206f776e657220697320746865207a65726f206160448201526564647265737360d01b60648201526084015b60405180910390fd5b6107c88161128b565b6001546001600160a01b031633146107db5760405162461bcd60e51b815260206004820181905260248201527f4f776e61626c653a2063616c6c6572206973206e6f7420746865206f776e65726044820152606401611171565b60026000540361122f5760405162461bcd60e51b815260206004820152601f60248201527f5265656e7472616e637947756172643a207265656e7472616e742063616c6c006044820152606401611171565b6002600055565b61123e611320565b6001805460ff60a01b191690557f5db9ee0a495bf2e6ff9c91a7834c1ba4fdd244a5e8aa4e537bd38aeae4b073aa335b6040516001600160a01b03909116815260200160405180910390a1565b600180546001600160a01b038381166001600160a01b0319831681179093556040519116919082907f8be0079c531659141344cd1fd0a4f28419497f9722a3daafe3b4186f6b6457e090600090a35050565b6112e5611370565b6001805460ff60a01b1916600160a01b1790557f62e78cea01bee320cd4e420270b5ea74000d11b0c9f74754ebdbfc544b05a25861126e3390565b600154600160a01b900460ff166107db5760405162461bcd60e51b815260206004820152601460248201527314185d5cd8589b194e881b9bdd081c185d5cd95960621b6044820152606401611171565b600154600160a01b900460ff16156107db5760405162461bcd60e51b815260206004820152601060248201526f14185d5cd8589b194e881c185d5cd95960821b6044820152606401611171565b6000602082840312156113cf57600080fd5b5035919050565b634e487b7160e01b600052602160045260246000fd5b6004811061140a57634e487b7160e01b600052602160045260246000fd5b9052565b6001600160a01b03888116825287166020820152604081018690526060810185905260e0810161144160808301866113ec565b92151560a082015260c0015295945050505050565b80151581146107c857600080fd5b6000806040838503121561147757600080fd5b82359150602083013561148981611456565b809150509250929050565b80356001600160a01b03811681146114ab57600080fd5b919050565b600080604083850312156114c357600080fd5b6114cc83611494565b946020939093013593505050565b6001600160a01b03868116825285166020820152604081018490526060810183905260a0810161150d60808301846113ec565b9695505050505050565b6000806000806080858703121561152d57600080fd5b61153685611494565b935061154460208601611494565b93969395505050506040820135916060013590565b6000806040838503121561156c57600080fd5b50508035926020909101359150565b60006020828403121561158d57600080fd5b61159682611494565b9392505050565b6000602082840312156115af57600080fd5b815161159681611456565b6000602082840312156115cc57600080fd5b5051919050565b634e487b7160e01b600052601160045260246000fd5b6000600182016115fb576115fb6115d3565b5060010190565b80820180821115611615576116156115d3565b9291505056fea26469706673582212201010545cedaf538b5bff3e2516f2002f373159fe1320753791d0be105dd5adfb64736f6c63430008130033",
  "linkReferences": {},
  "deployedLinkReferences": {}
}